:100000000C9460030C94880D0C947D030C947D0378
:100010000C947D030C947D030C947D030C946E066C
:100020000C947D090C947D030C947D030C947D034A
:100030000C947D030C947D030C947D030C947D0340
:100040000C94970D0C947D030C947D030C943B044D
:100050000C947D030C9414040C947D030C947D0388
:100060000C947D030C947D030C947D030C947D0310
:1000700000000000005C00000C000C007C287C28C4
:1000800058DC68002410480028542840000C000068
:10009000007884008478000054385400107C1000EC
:1000A00080400000101010000040000060100C00A4
:1000B00038543800487C40004864580044542C00B0
:1000C0001C107C005C5424003854240064140C0080
:1000D00068542C0048543800004800008048000054
:1000E0001028440028282800442810000454080040
:1000F00038445C00781478007C5428003844280088
:100100007C4438007C5444007C140400384474005F
:100110007C107C00447C440020403C007C106C003F
:100120007C4040007C187C0078103C00384438004B
:100130007C1408003844B8007C146800485424003B
:10014000047C04007C407C003C603C007C307C00F3
:100150006C106C000C700C0064544C00007C44006B
:100160000C106000447C00000804080080808000BF
:1001700000040800304878007C48300030484800CF
:1001800030487C00306850001078140090A8780047
:100190007C08700050744000808074007C106800FF
:1001A000447C4000781078007808700030483000B7
:1001B000F82810003048F80078100800505828003F
:1001C000083C4800384078003840380078207800F3
:1001D0004830480098A0780048685800107884009B
:1001E000007C00008478100008040804000000006F
:1001F0000000005F00000007000700147F147F1458
:10020000242A7F2A1223130864623649552250009B
:1002100005030000001C2241000041221C00082AA6
:100220001C2A0808083E080800503000000808088A
:100230000808006060000020100804023E51494593
:100240003E00427F400042615149462141454B31C9
:100250001814127F1027454545393C4A4949300159
:10026000710905033649494936064949291E0036B0
:100270003600000056360000000814224114141401
:10028000141441221408000201510906324979412F
:100290003E7E1111117E7F494949363E414141223E
:1002A0007F4141221C7F494949417F090901013EA3
:1002B000414151327F0808087F00417F41002040C2
:1002C000413F017F081422417F404040407F0204AB
:1002D000027F7F0408107F3E4141413E7F090909AA
:1002E000063E4151215E7F09192946464949493157
:1002F00001017F01013F4040403F1F2040201F7F00
:100300002018207F631408146303047804036151E8
:1003100049454300007F4141020408102041417FCC
:100320000000040201020440404040400001020479
:100330000020545454787F4844443838444444207E
:10034000384444487F3854545418087E0901020840
:100350001454543C7F0804047800447D400020403D
:10036000443D00007F10284400417F40007C041879
:1003700004787C0804047838444444387C14141409
:1003800008081414187C7C080404084854545420A9
:10039000043F4440203C4040207C1C2040201C3C2A
:1003A0004030403C44281028440C5050503C446499
:1003B000544C44000836410000007F0000004136E4
:1003C000080002010302010000000000000000001C
:1003D000065F5F0600000000070700070700001423
:1003E0007F7F147F7F1400242E6B6B3A120000462F
:1003F0006630180C666200307A4F5D377A48000428
:1004000007030000000000001C3E634100000000E4
:1004100041633E1C000000082A3E1C1C3E2A0808BE
:10042000083E3E0808000000A0E060000000000850
:100430000808080808000000006060000000006074
:1004400030180C060301003E7F594D7F3E000042EC
:10045000427F7F40400000627359496F660000226E
:100460006349497F360000181C16137F7F10002750
:100470006745457D3900003C7E4B497930000003DB
:100480006371190F070000367F49497F3600000667
:100490004F49693F1E000000006C6C000000000026
:1004A000A0EC6C00000000081C3663410000001442
:1004B00014141414140000004163361C08000002D8
:1004C0000351590F0600003E7F415D5D1F1E007CF9
:1004D0007E13137E7C0000417F7F49497F36001CDC
:1004E0003E634141632200417F7F41637F1C0041A5
:1004F0007F7F495D416300417F7F491D0103001CEF
:100500003E6341517372007F7F08087F7F000000C7
:10051000417F7F41000000307040417F3F0100413A
:100520007F7F081C776300417F7F41406070007FC0
:100530007F060C067F7F007F7F060C187F7F001CE4
:100540003E6341633E1C00417F7F49090F06001E48
:100550003F21717F5E0000417F7F19396F46002681
:10056000674D597B32000003417F7F410300007FCC
:100570007F40407F7F00001F3F60603F1F00007F83
:100580007F3018307F7F0063771C081C776300077B
:100590004F78784F0700006773594D47637100002B
:1005A0007F7F41410000000103060C18306000000D
:1005B00041417F7F000000080C0603060C08008004
:1005C000808080808080800000030704000000207D
:1005D0007454543C784000413F7F44447C38003898
:1005E0007C44446C280000307848493F7F40003804
:1005F0007C54545C180000487E7F49030200009838
:10060000BCA4A4F87C0400417F7F08047C7800002F
:10061000447D7D4000000040C484FD7D0000004119
:100620007F7F10386C440000417F7F400000007CD9
:100630007C0C180C7C78007C7C04047C78000038EE
:100640007C44447C38000084FCF8A4243C18001846
:100650003C24A4F8FC8400447C78441C1800004826
:100660005C54547424000000043E7F442400003C89
:100670007C40403C7C40001C3C60603C1C00003CDA
:100680007C6030607C3C00446C3810386C44009CCA
:10069000BCA0A0FC7C00004C64745C4C64000008AE
:1006A000083E7741410000000000777700000041DC
:1006B00041773E0808000002030103020301000025
:1006C00011241FBECFEFD4E0DEBFCDBF12E0A0E00B
:1006D000B1E0E0EEF5E202C005900D92AE3AB1074E
:1006E000D9F723E0AEEAB2E001C01D92AA34B20706
:1006F000E1F70E947F030C94EE120C940000CF935C
:10070000DF93CDB7DEB7A6970FB6F894DEBF0FBE66
:10071000CDBF8FE190E00E94B2030E940D040E94C1
:1007200057040E94E5040E9482060E9406070E9468
:10073000670BCE0101960E947505CE014C960E9472
:100740008C0978940E9449099E01255F3F4FAE01B4
:10075000415F5F4FBE016F5F7F4FCE014C960E949D
:10076000220AF0CF90BD89B98AB1886B8AB9089501
:100770002091AF0230E02F5F3F4F2F733078909180
:10078000AE029217E1F3E091AF02F0E0E050FD4FCE
:1007900080832093AF0290E080E00895CF93C82F2C
:1007A0008A3039F08C2F0E94B80390E080E0CF911E
:1007B00008958DE00E94CE03F5CF9091B102809113
:1007C000B0029817D1F3E091B102F0E0E054FD4F90
:1007D00080812091B10230E09091B002921713060F
:1007E00099F094F0A9014F5F5F4FFA01E054FD4F7B
:1007F000908120543D4FF90190839091B0029A016D
:100800009417150609F074F79091B00291509093E7
:10081000B00208950E94DD0308956AE074E08EEC52
:1008200093E00E94110E08951F920F920FB60F923F
:1008300011248F939F93EF93FF939091AF02809138
:10084000AE02981779F0E091AE02F0E0E050FD4F73
:1008500080818CB98091AE0290E001968F73907880
:100860008093AE02FF91EF919F918F910F900FBEF9
:100870000F901F9018951F920F920FB60F92112490
:100880008F93EF93FF93E091B002F0E08CB1E054CE
:10089000FD4F80838091B0028F5F8093B002FF9103
:1008A000EF918F910F900FBE0F901F90189580E8D9
:1008B00085BF80E280BF0895CF92DF92EF92FF92D2
:1008C0000F931F93CF93DF938EE091E00E94720EFF
:1008D0000E94010E6C010E94060ED0E0C0E010E004
:1008E00000E00F2EF4E2EF2EF1E0FF2EF02D05C018
:1008F0002196C11598E0D907F1F00E94010EFE0182
:10090000FC5E80832081281799F399279F938F930A
:100910001F922F93DF93CF93FF92EF920E945C0E72
:100920000F5F1F4F8DB79EB708960FB6F8949EBF06
:100930000FBE8DBFDDCFC6010E94060ED0E0C0E025
:10094000F12CE12C0F2EFDE5CF2EF1E0DF2EF02D66
:1009500005C02196C11598E0D907F1F00E94010E5B
:10096000FE01FC5E20812817A1F399279F938F93A6
:100970001F922F93DF93CF93DF92CF920E945C0E52
:100980008FEFE81AF80A8DB79EB708960FB6F8945D
:100990009EBF0FBE8DBFDDCFFF92EF921F930F93CF
:1009A0008AE991E09F938F930E945C0E0F900F90C5
:1009B0000F900F900F900F90DF91CF911F910F919B
:1009C000FF90EF90DF90CF9008958D9A1BBC1ABCDA
:1009D0008FB580648FBD8EB589608EBDEBE8F0E089
:1009E000808180688083EAE8F0E080818D60808388
:1009F000EDE7F0E080818061808380E390E0909378
:100A000087008093860008959091B302992309F49A
:100A100040C0E0910001F0910101208130E030936D
:100A2000B7022093B602208130E03093B5022093C4
:100A3000B402208130E03093B9022093B8022081C3
:100A400030E03093BB022093BA021082882359F021
:100A5000813071F0823089F08330A1F48091BA0244
:100A60009091BB0208958091B6029091B7020895CB
:100A70008091B4029091B50208958091B80290914E
:100A8000B902089583EF91E00E94720E90E080E039
:100A900008950895E0910001F0910101108298E31A
:100AA0009A95F1F7E0910001F09101019081208188
:100AB00040813081882369F0813071F0823079F093
:100AC000833081F083EF91E00E94720E90E080E02D
:100AD0000895892F90E00895822F90E00895842F43
:100AE00090E00895832F90E00895CF92DF92EF92E7
:100AF000FF920F931F93CF93DF936C01C0E2D0E07E
:100B000010E000E0F12CE12C80E00E944A05E80EA4
:100B1000F91E81E00E944A05080F191F2197A1F7CD
:100B2000C701992394F19595879595958795959506
:100B300087959595879595958795F60195838483F7
:100B4000C801992324F19595879595958795959555
:100B500087959595879595958795F60197838683D3
:100B60001182108213821282E0910001F091010142
:100B70001082F8E3FA95F1F7DF91CF911F910F9171
:100B8000FF90EF90DF90CF9008954F96CCCF4F9687
:100B9000DACFFC018091B6029091B70224813581B1
:100BA000821B930B918380838091B4029091B50254
:100BB00026813781821B930B938382838091BA02B3
:100BC0009091BB02FB01918380830895FC012281F7
:100BD00033812D3331053CF0808191819923D4F00C
:100BE00028173907DCF4243C4FEF34075CF580818B
:100BF0009181B9013323BCF0AC019923CCF0641787
:100C00007507DCF48D3391055CF181E090E091870C
:100C100080870895919581959109E2CF82E090E0D7
:100C200091878087089566277727621B730BE4CF2F
:100C300044275527481B590BE2CF83E090E091876A
:100C400080870895808191818D3391054CF0BC019E
:100C50009923C4F0A9013323D4F046175707ACF207
:100C6000843C4FEF94074CF4AC019923ACF0C901DC
:100C70009923BCF048175907CCF084E090E09187A5
:100C80008087089566277727681B790BE3CF442771
:100C90005527421B530BE1CF44275527481B590BBF
:100CA000E6CF88279927821B930BE4CF1186108605
:100CB00008959091B20281EA989F812D1124829526
:100CC0008695877023E3829F9019112421E030E0FC
:100CD000992311F030E020E0C90108951F920F928E
:100CE0000FB60F9211248F9381E08093B30280910D
:100CF000B2028F5F8093B2028F910F900FBE0F9060
:100D00001F90189587B38E6B87BBBE9888B38E6093
:100D100088BB8DB180658DB9709A0895C19808958A
:100D2000C3980895C298089588B38E6088BB0895CB
:100D30008FB9779BFECF08951FB8779BFECF8FB1F9
:100D400008958FB97F9BFECF8FB108950E949006C2
:100D500085E00E94980681E00E94980681E00E944A
:100D600098060E9494060895CF93DF930E948E0602
:100D7000C09884EB0E94980680E00E94980680E16B
:100D80000E949806C09AC0E8D0E08FEF0E949806B3
:100D90002197D9F70E949406DF91CF91089588306A
:100DA00008F00895C098806B0E949806FACFCF9300
:100DB00088235CF0C82FC0988F700E9498068C2FF3
:100DC00082958F7080610E949806CF910895883037
:100DD00090F420E8829FC00111249C0120583F4FCD
:100DE000E0910201F0910301E80FF91F10820196D2
:100DF00082179307A9F70895CF93C0E08C2F0E9424
:100E0000E706CF5FC830D1F7CF910895CF93DF9336
:100E10000E948E06B89AC0988EEA0E94980681EACF
:100E20000E94980688EC0E94980684EA0E94980620
:100E300086EA0E9498068FEA0E94980680E20E9445
:100E4000980680E00E94980681E20E94980680E061
:100E50000E9498068FEF0E94980682E20E949806F0
:100E600080E00E94980687E00E949806C09AC0E041
:100E7000D4E080E00E9498062197D9F7C09880E2DC
:100E80000E94980682E00E9498060E9494060E94A2
:100E9000FC06EBE8F0E0808180628083EAE8F0E025
:100EA00080818D608083EDE7F0E0808188608083C1
:100EB00080E390E09093850080938400DF91CF9150
:100EC0000895CF93C82F862F0E94D7068C2F0E949B
:100ED000CF06CF910895E82FE052FF0BCF01880F86
:100EE000991F880F991F8E0F9F1FFC01E451FE4F21
:100EF00020E8629FB0011124640F711D8F509E4F36
:100F00009B015491A0910201B0910301A20FB31F64
:100F10005C9331962F5F3F4FE817F90791F76B5FAE
:100F20007F4F4091020150910301640F751FFB0137
:100F3000108208950F931F93CF93DF93FC01D62F58
:100F4000C42F8081882369F08F010F5F1F4F4C2FC2
:100F50006D2F0E946B07CA5FF80181918F0181118B
:100F6000F6CFDF91CF911F910F91089590E8899F5F
:100F7000B0011124CB014496E0910201F0910301EC
:100F8000E80FF91F8FEF80839B012C563F4FAB0179
:100F900044515F4F91E0E0910201F0910301E20FB3
:100FA000F31F90832F5F3F4F24173507A1F79B0155
:100FB0002C563109AB014451510990E8E0910201EE
:100FC000F0910301E20FF31F90832F5F3F4F24172F
:100FD0003507A1F765597F4F809102019091030178
:100FE000680F791F8FEFFB018083089520E8829FAF
:100FF000C00111249C012C5E3F4FE0910201F09151
:101000000301E20FF31F108220583F4FAC014451FF
:101010005F4FE0910201F0910301E20FF31F108294
:101020002F5F3F4F24173507A1F79C012C5631093C
:10103000AC0144515109E0910201F0910301E20F2A
:10104000F31F10822F5F3F4F24173507A1F78559F3
:101050009F4F2091020130910301820F931FFC01E9
:10106000108208950E94FC0648E263E084E092E06A
:101070000E949A0742E365E08EE092E00E949A07A0
:1010800083E00E94B6070895CF92DF92EF92FF921D
:101090000F931F93CF93DF93EC010E94FC0648E26D
:1010A00060E084E192E00E949A0740E366E08BE111
:1010B00092E00E949A0786E00E94B60748E262E04A
:1010C00081E30E946B0748E263E082E30E946B07C2
:1010D00048E264E083E30E946B07288139813695FA
:1010E000279536952795ABE7B4E10E94A60D7C01C4
:1010F000F694E79442E362E080E38E0D0E946B0772
:1011000014E61E9D60011F9DD00C11242881398199
:101110002C193D09ADECBCEC0E94A60D7C01F694A7
:10112000E794F694E794F694E79448E362E080E36A
:101130008E0D0E946B07888199818C199D099701FA
:10114000220F331F220F331F2E0D3F1D220F331F7F
:10115000821B930B4EE362E0805D0E946B072A8145
:101160003B813695279536952795ABE7B4E10E94EC
:10117000A60D7C01F694E79442E363E080E38E0DD4
:101180000E946B071E9D60011F9DD00C11242A81B7
:101190003B812C193D09ADECBCEC0E94A60D7C01F5
:1011A000F694E794F694E794F694E79448E363E0C2
:1011B00080E38E0D0E946B078A819B818C199D09AB
:1011C0009701220F331F220F331F2E0D3F1D220FB9
:1011D000331F821B930B4EE363E0805D0E946B071D
:1011E0002C813D813695279536952795ABE7B4E15F
:1011F0000E94A60D6C01D694C79442E364E080E39C
:101200008C0D0E946B071C9D70011D9DF00C11241C
:101210002C813D812E193F09ADECBCEC0E94A60D3E
:101220008C0116950795169507951695079548E331
:1012300064E080E3800F0E946B078C819D818E1992
:101240009F099801220F331F220F331F200F311FD8
:10125000220F331F821B930B4EE364E0805D0E94DC
:101260006B07DF91CF911F910F91FF90EF90DF906F
:10127000CF9008950E94FC0645E063E080E292E092
:101280000E949A0744E165E085E392E00E949A0794
:101290000895FF920F931F93CF93DF938091BC0229
:1012A000811106C0DF91CF911F910F91FF9008959A
:1012B0000E948E06D0E0C0E0F12C8F2D0E94CF0658
:1012C00080E00E94D706C09A8E0100581F4FE0911F
:1012D0000201F0910301EC0FFD1F80810E9498062E
:1012E0002196C017D10799F7F39488E0F812E5CF5B
:1012F0001092BC020E949406D5CF1F920F920FB697
:101300000F9211248F9381E08093BC028F910F90F4
:101310000FBE0F901F901895CF93DF93EC011982A9
:1013200018820E9432081C821B821E821D8218862F
:101330001F8283E08A83DF91CF910895FC0181E0D1
:1013400090E0918380838FEF8283818592850E94D4
:101350003A09089522E030E0FC013183208326E041
:10136000228303960E9444080895CF93DF93EC01F3
:10137000198218820E94320883E08A83DF91CF911C
:101380000895CF93DF93D82F0E949006C09883E0F2
:101390000E94980688E38A95F1F70E949C0683E0F4
:1013A0008A95F1F70E949C0683E08A95F1F70E94E6
:1013B0009C06C82F0E9494061F92CF9386E492E069
:1013C0009F938F930E945C0E0F900F900F900F9041
:1013D000D11109C08091BD028C1711F0C11107C055
:1013E000C093BD02CD2F8C2FDF91CF910895C09374
:1013F000BD02C1E0F8CFCF93DF93FC0120813181A2
:10140000232BB1F4EC01FB0180859185833091059C
:1014100061F0029769F48A81853051F40E94F607E1
:1014200083E08A830E94B60703C08A81833019F063
:10143000DF91CF9108950E94F60785E08A830E948C
:10144000B607F6CFCF92DF92EF92FF920F931F93E2
:10145000CF93DF93EC018B017A01690180E00E9458
:101460000405B601C8010E94C905C7010E94F10C1C
:1014700088819981019771F1C8010E94E605B80140
:10148000CE010E94FB0988819981892B69F48A81A8
:10149000833009F475C08A81853009F058C080E036
:1014A0000E94C109811180C088819981029709F049
:1014B0004EC08A81863009F04AC080E00E94C1098E
:1014C000882309F444C0198218820E94320883E0FC
:1014D0008A833DC086E592E00E94720E0E94590602
:1014E00029853A85820F931F9A8789879F938F93C7
:1014F0008AE592E09F938F930E945C0E0F900F906D
:101500000F900F90F70180819181892BB9F4898523
:101510009A852B813C812817390710F54D815E8112
:1015200058874F833E832D839C838B83CE010E94FB
:10153000AA0982E090E0F7019183808381E00E9414
:10154000C109282FA601B801C7010E944F0DDF91E4
:10155000CF911F910F91FF90EF90DF90CF90089562
:101560002D813E812817390718F49E838D83DECFA5
:101570002F81388528173907C8F698878F83D6CFEB
:1015800080E00E94C109811106C088819981892B60
:1015900009F481CF89CF1A861986C7010E947B0D75
:1015A000CE010E949E09D3CFCE010E94AA09CFCFBF
:1015B000CF93C82F0E94920683E00E9498068C2F3A
:1015C0000E9498060E949C06C82F0E9494068C2FA9
:1015D000CF910895CF93DF93D82FC62F0E94920604
:1015E00082E00E9498068D2F0E9498068C2F0E9400
:1015F00098060E949406DF91CF910895CF930E94A0
:10160000920680EA0E9498060E949C060E949C0610
:10161000C82F0E9494068C2FCF910895CF93DF930B
:10162000EC010E949206209769F0C130D10571F05B
:10163000C230D10579F0239789F00E949406DF919A
:10164000CF91089587E80E949806F7CF81E80E941D
:101650009806F3CF82E80E949806EFCF84E80E94B4
:101660009806EBCF1F93CF93DF93182FD62FC42F5D
:101670000E94920685E00E949806812F0E9498069B
:101680008D2F0E9498068C2F0E9498060E94940627
:10169000DF91CF911F9108950E94920680EC0E94E5
:1016A00098060E94940608950E944C0B8EE00E94BA
:1016B000D80A807E803849F08DE692E00E94720E52
:1016C00040E860EE8FE00E94320B80E008950E94B7
:1016D000540B8BB780648BBF85B7826085BF83B79F
:1016E0008D6083BF89B7816089BF80E381BF60E07F
:1016F00080E00E94EA0A60E081E00E94EA0A60E07D
:1017000084E00E94EA0A60E085E00E94EA0A60E064
:1017100080E20E94EA0A60E681E20E94EA0A40E072
:1017200060EC8AE20E94320B47E26FE38AE20E9499
:10173000320B41E16FEF89E20E94320B42E060E040
:1017400088E20E94320B41E061E08BE20E94320BA2
:1017500040E06CE18BE20E94320B40E061E08CE201
:101760000E94320B40E060EE8FE00E94320B089541
:10177000AF92BF92CF92DF92FF920F931F93CF93BE
:10178000DF93EC0108811981F02EFF0CFF0CFF0C98
:10179000FF0CFF0C1695079516950795169507955E
:1017A0008B859C85009709F083C00E94FE0A847592
:1017B000E1F7602F81E30E94EA0A6F2D82E30E9425
:1017C000EA0A602F81E40E94EA0A6F2D82E40E94F7
:1017D000EA0A602F81E50E94EA0A6F2D82E50E94E5
:1017E000EA0A6A8585E30E94EA0A6A8585E40E941E
:1017F000EA0A6A8585E50E94EA0A8A85882309F44F
:1018000049C06E0182E0C80ED11C56010F2EF6E3CE
:10181000FF2EF02D10E000E0F50161915F018F2DAA
:101820000E94EA0A0F5F1F4F8A85F3948017110602
:1018300009F094F7882371F10F2EF6E4FF2EF02DB6
:1018400010E000E0F60161916F018F2D0E94EA0A1D
:101850000F5F1F4FF3948A858017110609F094F7E4
:101860008823C1F06E01F2E0CF0ED11C0F2EF6E5F9
:10187000FF2EF02D10E000E0F60161916F018F2D39
:101880000E94EA0A0F5F1F4FF3948A8580171106A2
:1018900009F094F78B859C850E940E0BDF91CF9108
:1018A0001F910F91FF90DF90CF90BF90AF90089560
:1018B00081309105B1F18230910509F462C003973E
:1018C00069F70E94FE0A86FDFCCF602F81E50E9429
:1018D000EA0A6F2D82E50E94EA0A6A8585E50E9480
:1018E000EA0A8A858823C1F06E01F2E0CF0ED11C8E
:1018F0000F2EF6E5FF2EF02D10E000E0F6016191CD
:101900006F018F2D0E94EA0A0F5F1F4FF3948A85A3
:101910008017110609F094F78B859C850E940E0BA9
:10192000BDCF0E94FE0A82FDFCCF602F81E30E94A2
:10193000EA0A6F2D82E30E94EA0A6A8585E30E9423
:10194000EA0A8A858823C1F06E01F2E0CF0ED11C2D
:101950000F2EF6E3FF2EF02D10E000E0F60161916E
:101960006F018F2D0E94EA0A0F5F1F4FF3948A8543
:101970008017110609F094F78B859C850E940E0B49
:101980008DCF0E94FE0A84FDFCCF602F81E40E946F
:10199000EA0A6F2D82E40E94EA0A6A8585E40E94C1
:1019A000EA0A8A858823C1F06E01F2E0CF0ED11CCD
:1019B0000F2EF6E4FF2EF02D10E000E0F60161910D
:1019C0006F018F2D0E94EA0A0F5F1F4FF3948A85E3
:1019D0008017110609F094F78B859C850E940E0BE9
:1019E0005DCFCF92DF92EF92FF920F931F93CF9331
:1019F0007C019091BF02911108C0CF911F910F916E
:101A0000FF90EF90DF90CF90089581E60E94D80A72
:101A100028E0829FC0011124F7019183808382E630
:101A20000E94D80AF70120813181282B318320833D
:101A300085E60E94D80A8F70F70182878823C9F053
:101A400087010E5F1F4FC6E68EEF9FEF6C01CE1829
:101A5000DF088C2F0E94D80AF80181938F01CF5F95
:101A6000F7012285C601800F911F2817190609F07A
:101A700084F7F70182811F928F938FE992E09F9301
:101A80008F930E945C0E1092BF0240E061E08CE2F6
:101A90000E94320B0F900F900F900F90AECFCF930C
:101AA000DF933091BE02311103C0DF91CF910895D1
:101AB000EA01DB01FC0181E090E09487838782E00A
:101AC00090E09183808387E0828711968C911197B3
:101AD00082838C91838313968C91139784831296BF
:101AE0008C91858389818683888187832087CF0134
:101AF0000E94B80BDACF21E030E0FC013487238765
:101B00003183208322872FEF22830E94B80B089510
:101B10001F920F920FB60F9211248F9381E0809342
:101B2000BF028F910F900FBE0F901F9018951F92BC
:101B30000F920FB60F9211248F9381E08093BE0213
:101B40008F910F900FBE0F901F901895A29FB0011C
:101B5000B39FC001A39F700D811D1124911DB29FE1
:101B6000700D811D1124911D08958F929F92AF9247
:101B7000BF92CF92DF92EF92FF92CF93DF93EC016F
:101B8000688179818A819B81611571058105910543
:101B900021F464E279ED8BE597E02DE133EF41E04C
:101BA00050E00E94631249015A019B01AC01A7EA6F
:101BB000B1E40E9482126B017C01ACEEB4EFA5018E
:101BC00094010E949012DC01CB018C0D9D1DAE1D75
:101BD000BF1DB7FF03C00197A109B048888399834F
:101BE000AA83BB839F77DF91CF91FF90EF90DF9027
:101BF000CF90BF90AF909F908F9008950E94B50DA9
:101C0000089584E091E00E94B50D0895B0E0A0E051
:101C10008093040190930501A0930601B0930701FE
:101C200008950F931F93CF93DF93009759F4611595
:101C3000710541F4F0E0E0E0CF01DF91CF911F9119
:101C40000F9108958B01EC016EE070E081E090E06F
:101C50000E947710FC01892B69F380E883830115CA
:101C6000110571F01387028781E883838091400317
:101C700090914103892B21F4F0934103E0934003B9
:101C80002097D1F2D187C08783818260838380913E
:101C9000420390914303892B79F6F0934303E09339
:101CA00042038091440390914503892B29F6F093D8
:101CB0004503E0934403C0CFB0E0A0E0E2E6FEE0DD
:101CC0000C94A512AE014B5F5F4FFA0161917191C7
:101CD000AF0180914203909143030E949D0EE2E088
:101CE0000C94C1120F931F93CF93DF93E0914203A3
:101CF000F09143032381EC0110E000E021FD08C0D6
:101D00000FEF1FEF14C00995892B11F00FEF1FEF94
:101D100089916091420370914303DB011896ED9124
:101D2000FC918111F0CF8AE00995892B49F7C80110
:101D3000DF91CF911F910F910895ABE0B0E0E3EAFE
:101D4000FEE00C9495127C013B018A01FC01178294
:101D50001682838181FFC8C1CE0101965C01F70123
:101D60009381F30193FD859193FF81913F01882336
:101D700009F453C1853239F493FD859193FF819124
:101D80003F01853229F4B70190E00E94D511E7CFD9
:101D9000912C212C312CFFE1F31538F08B3211F10D
:101DA00090F4803209F1833229F137FC3CC020EDF8
:101DB000280F2A3050F536FE20C08AE0989E200D6C
:101DC0001124922E06C08D3291F0803371F7689401
:101DD00030F8F30193FD859193FF81913F018111CB
:101DE000DACF21C0689431F8689432F8F2CF689461
:101DF00033F8EFCF689434F8ECCFEAE02E9E200D54
:101E00001124222E689435F8E4CF8E3229F436FC62
:101E100004C1689436F8DDCF8C3619F4689437F82D
:101E2000D8CF8836B1F2982F9F7D95549330E0F04B
:101E30008336A1F18337C1F1833509F063C02801EE
:101E4000F2E04F0E511CF801C080D180692D70E086
:101E500036FC02C06FEF7FEFC6010E94B8114C0143
:101E6000689437F882010AC00C5F1F4FFFE3F983C3
:101E700088248394912C6501E89437F833FE2DC0B3
:101E8000522C8114910471F5552009F468CFB701E3
:101E900080E290E00E94D5115A94F6CFF80180813B
:101EA00089830E5F1F4FE4CF2801F2E04F0E511CD3
:101EB000F801C080D180692D70E036FC02C06FEF60
:101EC0007FEFC6010E94CA114C018201D5CFB70134
:101ED00080E290E00E94D5112A942814190409F098
:101EE000B0F7CECFF60137FC859137FE81916F01B7
:101EF000B70190E00E94D51151105A94F1E08F1A69
:101F00009108BFCF843619F0893609F077C0F801FF
:101F100037FE6BC060817181828193810C5F1F4F9E
:101F2000F32DFF763F2E97FF09C090958095709511
:101F300061957F4F8F4F9F4F689437F82AE030E0CC
:101F4000A5010E940512C82ECA188C2C432C36FEFF
:101F50000CC0E89440F8C91440F434FE05C032FCCB
:101F600003C0F32DFE7E4F2E892C44FE95C0FE014A
:101F7000EC0DF11D8081803309F087C0242D297E6E
:101F8000422E842D8870582E43FC95C040FE8FC091
:101F90009C2C821418F42C0C922C981844FE91C09E
:101FA000B70180E390E00E94D51142FE09C088E7A6
:101FB00090E041FE02C088E590E0B7010E94D51193
:101FC000C91408F48AC0CA94D12C9FEFC91AD90A3F
:101FD000CA0CDB1CF60182916F01B70190E00E94F0
:101FE000D511AC14BD04B1F74FCF60817181072EBC
:101FF000000C880B990B0E5F1F4F92CFD32CE894E7
:10200000D4F82AE030E0853739F1232D297FD22E0C
:102010008F3601F148F48835A9F0F7018681978160
:102020002B96E2E10C94B112803749F08837A9F77A
:10203000D4FE02C06894D2F820E130E00DC068946C
:10204000D4F8F6CF34FE03C0822F8660D82E20E16C
:1020500032E002C028E030E0F801D7FE0FC0608116
:102060007181828193810C5F1F4FA5010E9405122F
:10207000C82ECA183D2CE89437F867CF608171816B
:1020800090E080E00E5F1F4FF0CF42FC02C08394CF
:1020900078CF8394839475CF842D867809F471CF9B
:1020A000F6CFB70180E290E00E94D51183948214AC
:1020B000C0F3512C73CF522C5818821408F46ECFF1
:1020C000F8CF842D867809F47BCF8BE241FE80E245
:1020D00047FC8DE2B70190E071CFB70180E390E05B
:1020E0000E94D5119A946CCF8FEF9FEF99CF0F93E9
:1020F0001F93CF93DF93869F8001879F100D969F3C
:10210000100D1124C8010E949310EC01009729F0D2
:10211000A80170E060E00E94C311CE01DF91CF9171
:102120001F910F9108950F931F93CF93DF938230E8
:10213000910510F482E090E0E0914803F0914903AA
:1021400030E020E0B0E0A0E0309799F421153105AF
:1021500009F44AC0281B390B24303105D8F58A818F
:102160009B816115710589F1FB0193838283FE01D7
:1021700011C0408151810281138148175907E0F055
:102180004817590799F4109761F012960C9312971B
:1021900013961C933296CF01DF91CF911F910F912F
:1021A00008950093480310934903F4CF2115310596
:1021B00051F04217530738F0A901DB019A01BD0124
:1021C000DF01F801C1CFEF01F9CF9093490380936C
:1021D0004803CDCFFE01E20FF31F8193919322506C
:1021E000310939832883D7CF2091460330914703A3
:1021F000232B41F420910A0130910B0130934703C6
:1022000020934603209108013091090121153105E1
:1022100041F42DB73EB740910C0150910D01241BA4
:10222000350BE0914603F0914703E217F307A0F462
:102230002E1B3F0B2817390778F0AC014E5F5F4F1C
:102240002417350748F04E0F5F1F50934703409304
:102250004603819391939FCFF0E0E0E09CCFCF9332
:10226000DF930097E9F0FC01329713821282A0916C
:102270004803B0914903ED0130E020E01097A1F44C
:1022800020813181820F931F2091460330914703B3
:102290002817390709F061C0F0934703E09346031C
:1022A000DF91CF910895EA01CE17DF07E8F54A8163
:1022B0005B819E0141155105B1F7E901FB83EA837A
:1022C00049915991C40FD51FEC17FD0761F4808126
:1022D00091810296840F951FE901998388838281F9
:1022E00093819B838A83F0E0E0E012968D919C912C
:1022F00013970097B9F52D913C911197CD01029656
:10230000820F931F20914603309147032817390706
:1023100039F6309751F51092490310924803B09363
:102320004703A0934603BCCFD383C283408151812E
:10233000840F951FC817D90761F44E5F5F4F8881DE
:102340009981480F591F518340838A819B819383D0
:1023500082832115310509F0B0CFF0934903E09352
:1023600048039ECFFD01DC01C0CF13821282D7CF7C
:10237000FC010590615070400110D8F78095909550
:102380008E0F9F1F0895DC0101C06D934150504096
:10239000E0F70895FC016150704001900110D8F7FA
:1023A000809590958E0F9F1F08950F931F93CF9345
:1023B000DF93182F092FEB018B8181FD09C01FEFDF
:1023C0000FEF812F902FDF91CF911F910F910895E3
:1023D00082FF14C02E813F818C819D81281739078F
:1023E0003CF4E881F981CF010196998388831083B9
:1023F0008E819F8101969F838E83E3CFE885F98547
:10240000812F0995892BA1F3DACFFA01AA27283069
:1024100051F1203181F1E8946F936E7F6E5F7F4FB1
:102420008F4F9F4FAF4FB1E03ED0B4E03CD0670F2D
:10243000781F891F9A1FA11D680F791F8A1F911D80
:10244000A11D6A0F711D811D911DA11D20D009F4D0
:1024500068943F912AE0269F11243019305D319312
:10246000DEF6CF010895462F4770405D4193B3E0FB
:102470000FD0C9F7F6CF462F4F70405D4A3318F0A2
:10248000495D31FD4052419302D0A9F7EACFB4E053
:10249000A6959795879577956795BA95C9F700970B
:1024A0006105710508959B01AC010A2E06945795AC
:1024B000479537952795BA95C9F7620F731F841F03
:1024C000951FA01D0895052E97FB1EF400940E94F1
:1024D0007A1257FD07D00E94CC1207FC03D04EF4AD
:1024E0000C947A1250954095309521953F4F4F4F5F
:1024F0005F4F089590958095709561957F4F8F4FB0
:102500009F4F08950E94A60DA59F900DB49F900D1A
:10251000A49F800D911D11240895B7FF0C94821281
:102520000E948212821B930B08952F923F924F922A
:102530005F926F927F928F929F92AF92BF92CF9253
:10254000DF92EF92FF920F931F93CF93DF93CDB75C
:10255000DEB7CA1BDB0B0FB6F894DEBF0FBECDBFD4
:1025600009942A88398848885F846E847D848C84A5
:102570009B84AA84B984C884DF80EE80FD800C81AE
:102580001B81AA81B981CE0FD11D0FB6F894DEBF91
:102590000FBECDBFED010895A1E21A2EAA1BBB1BF1
:1025A000FD010DC0AA1FBB1FEE1FFF1FA217B3071F
:1025B000E407F50720F0A21BB30BE40BF50B661F35
:1025C000771F881F991F1A9469F7609570958095F9
:1025D00090959B01AC01BD01CF010895F894FFCF08
:1025E000341200160100000000004A03200053745A
:1025F000617274696E67205352414D207465737423
:102600002E2E2E00577269746520706861736520E4
:102610006572726F723A206578745F72616D5B25C6
:1026200034645D203D2025303258202873686F7552
:102630006C642062652025303258290A0052657486
:1026400072696576616C207068617365206572726D
:102650006F723A206578745F72616D5B2534645DDA
:10266000203D2025303258202873686F756C642017
:1026700062652025303258290A005352414D20749A
:1026800065737420636F6D706C6574656420776921
:102690007468200A253464206572726F7273206931
:1026A0006E20777269746520706861736520616E51
:1026B00064200A253464206572726F727320696E1B
:1026C0002072657472696576616C207068617365EB
:1026D0000A0A00496E76616C6964206368616E6EF7
:1026E000656C2E00506C61792067616D65005363E5
:1026F0006F72650053636F726573004261636B00B4
:102700005468652067616D6520686173207374612A
:102710007274656400596F752063616E20646F2068
:1027200074686973210049732070726573736564FE
:102730003A2025750A004865690043757272656E16
:10274000742073636F72653A2025750A004D4350FB
:1027500032353135206973204E4F5420696E206325
:102760006F6E66696775726174696F6E206D6F64F4
:10277000652061667465722072657365742100520C
:0E278000656369657665643A2025750A000078
:00000001FF
