:100000000C9460030C94540D0C947D030C947D03AC
:100010000C947D030C947D030C947D030C94680672
:100020000C9477090C947D030C947D030C947D0350
:100030000C947D030C947D030C947D030C947D0340
:100040000C94630D0C947D030C947D030C943C0480
:100050000C947D030C9415040C947D030C947D0387
:100060000C947D030C947D030C947D030C947D0310
:1000700000000000005C00000C000C007C287C28C4
:1000800058DC68002410480028542840000C000068
:10009000007884008478000054385400107C1000EC
:1000A00080400000101010000040000060100C00A4
:1000B00038543800487C40004864580044542C00B0
:1000C0001C107C005C5424003854240064140C0080
:1000D00068542C0048543800004800008048000054
:1000E0001028440028282800442810000454080040
:1000F00038445C00781478007C5428003844280088
:100100007C4438007C5444007C140400384474005F
:100110007C107C00447C440020403C007C106C003F
:100120007C4040007C187C0078103C00384438004B
:100130007C1408003844B8007C146800485424003B
:10014000047C04007C407C003C603C007C307C00F3
:100150006C106C000C700C0064544C00007C44006B
:100160000C106000447C00000804080080808000BF
:1001700000040800304878007C48300030484800CF
:1001800030487C00306850001078140090A8780047
:100190007C08700050744000808074007C106800FF
:1001A000447C4000781078007808700030483000B7
:1001B000F82810003048F80078100800505828003F
:1001C000083C4800384078003840380078207800F3
:1001D0004830480098A0780048685800107884009B
:1001E000007C00008478100008040804000000006F
:1001F0000000005F00000007000700147F147F1458
:10020000242A7F2A1223130864623649552250009B
:1002100005030000001C2241000041221C00082AA6
:100220001C2A0808083E080800503000000808088A
:100230000808006060000020100804023E51494593
:100240003E00427F400042615149462141454B31C9
:100250001814127F1027454545393C4A4949300159
:10026000710905033649494936064949291E0036B0
:100270003600000056360000000814224114141401
:10028000141441221408000201510906324979412F
:100290003E7E1111117E7F494949363E414141223E
:1002A0007F4141221C7F494949417F090901013EA3
:1002B000414151327F0808087F00417F41002040C2
:1002C000413F017F081422417F404040407F0204AB
:1002D000027F7F0408107F3E4141413E7F090909AA
:1002E000063E4151215E7F09192946464949493157
:1002F00001017F01013F4040403F1F2040201F7F00
:100300002018207F631408146303047804036151E8
:1003100049454300007F4141020408102041417FCC
:100320000000040201020440404040400001020479
:100330000020545454787F4844443838444444207E
:10034000384444487F3854545418087E0901020840
:100350001454543C7F0804047800447D400020403D
:10036000443D00007F10284400417F40007C041879
:1003700004787C0804047838444444387C14141409
:1003800008081414187C7C080404084854545420A9
:10039000043F4440203C4040207C1C2040201C3C2A
:1003A0004030403C44281028440C5050503C446499
:1003B000544C44000836410000007F0000004136E4
:1003C000080002010302010000000000000000001C
:1003D000065F5F0600000000070700070700001423
:1003E0007F7F147F7F1400242E6B6B3A120000462F
:1003F0006630180C666200307A4F5D377A48000428
:1004000007030000000000001C3E634100000000E4
:1004100041633E1C000000082A3E1C1C3E2A0808BE
:10042000083E3E0808000000A0E060000000000850
:100430000808080808000000006060000000006074
:1004400030180C060301003E7F594D7F3E000042EC
:10045000427F7F40400000627359496F660000226E
:100460006349497F360000181C16137F7F10002750
:100470006745457D3900003C7E4B497930000003DB
:100480006371190F070000367F49497F3600000667
:100490004F49693F1E000000006C6C000000000026
:1004A000A0EC6C00000000081C3663410000001442
:1004B00014141414140000004163361C08000002D8
:1004C0000351590F0600003E7F415D5D1F1E007CF9
:1004D0007E13137E7C0000417F7F49497F36001CDC
:1004E0003E634141632200417F7F41637F1C0041A5
:1004F0007F7F495D416300417F7F491D0103001CEF
:100500003E6341517372007F7F08087F7F000000C7
:10051000417F7F41000000307040417F3F0100413A
:100520007F7F081C776300417F7F41406070007FC0
:100530007F060C067F7F007F7F060C187F7F001CE4
:100540003E6341633E1C00417F7F49090F06001E48
:100550003F21717F5E0000417F7F19396F46002681
:10056000674D597B32000003417F7F410300007FCC
:100570007F40407F7F00001F3F60603F1F00007F83
:100580007F3018307F7F0063771C081C776300077B
:100590004F78784F0700006773594D47637100002B
:1005A0007F7F41410000000103060C18306000000D
:1005B00041417F7F000000080C0603060C08008004
:1005C000808080808080800000030704000000207D
:1005D0007454543C784000413F7F44447C38003898
:1005E0007C44446C280000307848493F7F40003804
:1005F0007C54545C180000487E7F49030200009838
:10060000BCA4A4F87C0400417F7F08047C7800002F
:10061000447D7D4000000040C484FD7D0000004119
:100620007F7F10386C440000417F7F400000007CD9
:100630007C0C180C7C78007C7C04047C78000038EE
:100640007C44447C38000084FCF8A4243C18001846
:100650003C24A4F8FC8400447C78441C1800004826
:100660005C54547424000000043E7F442400003C89
:100670007C40403C7C40001C3C60603C1C00003CDA
:100680007C6030607C3C00446C3810386C44009CCA
:10069000BCA0A0FC7C00004C64745C4C64000008AE
:1006A000083E7741410000000000777700000041DC
:1006B00041773E0808000002030103020301000025
:1006C00011241FBECFEFD4E0DEBFCDBF12E0A0E00B
:1006D000B1E0E8E7F5E202C005900D92AC3AB1074F
:1006E000D9F723E0ACEAB2E001C01D92A834B2070A
:1006F000E1F70E947F030C94BA120C940000CF9390
:10070000DF93CDB7DEB7A2970FB6F894DEBF0FBE6A
:10071000CDBF8FE190E00E94B3030E940E040E94BF
:1007200058040E94E6040E947C060E9400070E9472
:100730004A0BCE0101960E947605CE0148960E9492
:10074000860978940E944309AE01455F5F4FBE0160
:100750006F5F7F4FCE0148960E94160ACE010B961E
:100760000E94D40CEFCF90BD89B98AB1886B8AB949
:1007700008952091AD0230E02F5F3F4F2F73307806
:100780009091AC029217E1F3E091AD02F0E0E250FB
:10079000FD4F80832093AD0290E080E00895CF93D9
:1007A000C82F8A3039F08C2F0E94B90390E080E086
:1007B000CF9108958DE00E94CF03F5CF9091AF02C5
:1007C0008091AE029817D1F3E091AF02F0E0E254CD
:1007D000FD4F80812091AF0230E09091AE029217E0
:1007E000130699F094F0A9014F5F5F4FFA01E254AC
:1007F000FD4F908122543D4FF90190839091AE02BC
:100800009A019417150609F074F79091AE02915071
:100810009093AE0208950E94DE0308956BE074E0A9
:100820008FEC93E00E94DD0D08951F920F920FB69A
:100830000F9211248F939F93EF93FF939091AD02AA
:100840008091AC02981779F0E091AC02F0E0E250B0
:10085000FD4F80818CB98091AC0290E001968F733E
:1008600090788093AC02FF91EF919F918F910F90C0
:100870000FBE0F901F9018951F920F920FB60F92F8
:1008800011248F93EF93FF93E091AE02F0E08CB1CF
:10089000E254FD4F80838091AE028F5F8093AE0261
:1008A000FF91EF918F910F900FBE0F901F901895B1
:1008B00080E885BF80E280BF0895CF92DF92EF92FB
:1008C000FF920F931F93CF93DF938EE091E00E94EE
:1008D0003E0E0E94CD0D6C010E94D20DD0E0C0E012
:1008E00010E000E00F2EF4E2EF2EF1E0FF2EF02DED
:1008F00005C02196C11598E0D907F1F00E94CD0DF1
:10090000FE01FC5E80832081281799F399279F932D
:100910008F931F922F93DF93CF93FF92EF920E94BA
:10092000280E0F5F1F4F8DB79EB708960FB6F8942D
:100930009EBF0FBE8DBFDDCFC6010E94D20DD0E09D
:10094000C0E0F12CE12C0F2EFDE5CF2EF1E0DF2EE3
:10095000F02D05C02196C11598E0D907F1F00E944D
:10096000CD0DFE01FC5E20812817A1F399279F93EE
:100970008F931F922F93DF93CF93DF92CF920E949A
:10098000280E8FEFE81AF80A8DB79EB708960FB6B3
:10099000F8949EBF0FBE8DBFDDCFFF92EF921F93E5
:1009A0000F938AE991E09F938F930E94280E0F90F6
:1009B0000F900F900F900F900F90DF91CF911F919C
:1009C0000F91FF90EF90DF90CF9008958D9A1BBC10
:1009D0001ABC8FB580648FBD8EB589608EBDEBE883
:1009E000F0E0808180688083EAE8F0E080818D60BB
:1009F0008083EDE7F0E080818061808380E390E098
:100A0000909387008093860008959091B102992376
:100A100009F440C0E0910001F0910101208130E033
:100A20003093B5022093B402208130E03093B302BA
:100A30002093B202208130E03093B7022093B602B7
:100A4000208130E03093B9022093B80210828823CD
:100A500059F0813071F0823089F08330A1F48091B7
:100A6000B8029091B90208958091B4029091B502B4
:100A700008958091B2029091B30208958091B602D8
:100A80009091B702089583EF91E00E943E0E90E0AE
:100A900080E008950895E0910001F0910101108235
:100AA00098E39A95F1F7E0910001F09101019081AE
:100AB000208140813081882369F0813071F082305B
:100AC00079F0833081F083EF91E00E943E0E90E058
:100AD00080E00895892F90E00895822F90E0089596
:100AE000842F90E00895832F90E00895CF92DF92B5
:100AF000EF92FF920F931F93CF93DF936C01C0E2AD
:100B0000D0E010E000E0F12CE12C80E00E944B05E9
:100B1000E80EF91E81E00E944B05080F191F21976E
:100B2000A1F7C701992394F1959587959595879598
:100B3000959587959595879595958795F6019583D4
:100B40008483C801992324F1959587959595879578
:100B5000959587959595879595958795F6019783B2
:100B600086831182108213821282E0910001F0913B
:100B700001011082F8E3FA95F1F7DF91CF911F910F
:100B80000F91FF90EF90DF90CF9008954F96CCCFCC
:100B90004F96DACFFC018091B4029091B502248186
:100BA0003581821B930B918380838091B202909157
:100BB000B30226813781821B930B9383828308952E
:100BC000FC01228133812D3331053CF080819181FC
:100BD0009923D4F028173907DCF4243C4FEF34076D
:100BE0005CF580819181B9013323BCF0AC0199237C
:100BF000CCF064177507DCF48D3391055CF181E06E
:100C000090E0918780870895919581959109E2CF31
:100C100082E090E091878087089566277727621B9E
:100C2000730BE4CF44275527481B590BE2CF83E0D1
:100C300090E0918780870895808191818D3391051F
:100C40004CF0BC019923C4F0A9013323D4F046171A
:100C50005707ACF2843C4FEF94074CF4AC01992356
:100C6000ACF0C9019923BCF048175907CCF084E0D7
:100C700090E091878087089566277727681B790B16
:100C8000E3CF44275527421B530BE1CF4427552779
:100C9000481B590BE6CF88279927821B930BE4CF7B
:100CA0001186108608959091B00281EA989F812D57
:100CB000112482958695877023E3829F90191124D1
:100CC00021E030E0992311F030E020E0C9010895DF
:100CD0001F920F920FB60F9211248F9381E0809391
:100CE000B1028091B0028F5F8093B0028F910F901C
:100CF0000FBE0F901F90189587B38E6B87BBBE9861
:100D000088B38E6088BB8DB180658DB9709A089567
:100D1000C1980895C3980895C298089588B38E60C5
:100D200088BB08958FB9779BFECF08951FB8779B36
:100D3000FECF8FB108958FB97F9BFECF8FB10895FD
:100D40000E948A0685E00E94920681E00E94920637
:100D500081E00E9492060E948E060895CF93DF9351
:100D60000E948806C09884EB0E94920680E00E9450
:100D7000920680E10E949206C09AC0E8D0E08FEF10
:100D80000E9492062197D9F70E948E06DF91CF919B
:100D90000895883008F00895C098806B0E949206EC
:100DA000FACFCF9388235CF0C82FC0988F700E9431
:100DB00092068C2F82958F7080610E949206CF914F
:100DC0000895883090F420E8829FC00111249C018E
:100DD00020583F4FE0910201F0910301E80FF91F05
:100DE0001082019682179307A9F70895CF93C0E068
:100DF0008C2F0E94E106CF5FC830D1F7CF910895C4
:100E0000CF93DF930E948806B89AC0988EEA0E941A
:100E1000920681EA0E94920688EC0E94920684EA79
:100E20000E94920686EA0E9492068FEA0E9492062B
:100E300080E20E94920680E00E94920681E20E9477
:100E4000920680E00E9492068FEF0E94920682E254
:100E50000E94920680E00E94920687E00E9492061D
:100E6000C09AC0E0D4E080E00E9492062197D9F7B2
:100E7000C09880E20E94920682E00E9492060E9440
:100E80008E060E94F606EBE8F0E0808180628083A7
:100E9000EAE8F0E080818D608083EDE7F0E080811A
:100EA0008860808380E390E0909385008093840045
:100EB000DF91CF910895CF93C82F862F0E94D1063E
:100EC0008C2F0E94C906CF910895E82FE052FF0BA6
:100ED000CF01880F991F880F991F8E0F9F1FFC014C
:100EE000E451FE4F20E8629FB0011124640F711D90
:100EF0008F509E4F9B015491A0910201B09103012C
:100F0000A20FB31F5C9331962F5F3F4FE817F9078D
:100F100091F76B5F7F4F4091020150910301640F85
:100F2000751FFB01108208950F931F93CF93DF93DA
:100F3000FC01D62FC42F8081882369F08F010F5FB9
:100F40001F4F4C2F6D2F0E946507CA5FF8018191DA
:100F50008F018111F6CFDF91CF911F910F910895ED
:100F600090E8899FB0011124CB014496E0910201E1
:100F7000F0910301E80FF91F8FEF80839B012C563E
:100F80003F4FAB0144515F4F91E0E0910201F0917E
:100F90000301E20FF31F90832F5F3F4F24173507A4
:100FA000A1F79B012C563109AB014451510990E83E
:100FB000E0910201F0910301E20FF31F90832F5F94
:100FC0003F4F24173507A1F765597F4F80910201E4
:100FD00090910301680F791F8FEFFB0180830895C3
:100FE00020E8829FC00111249C012C5E3F4FE091BC
:100FF0000201F0910301E20FF31F108220583F4FCE
:10100000AC0144515F4FE0910201F0910301E20F06
:10101000F31F10822F5F3F4F24173507A1F79C0164
:101020002C563109AC0144515109E0910201F09173
:101030000301E20FF31F10822F5F3F4F2417350784
:10104000A1F785599F4F2091020130910301820F32
:10105000931FFC01108208950E94F60648E263E0A7
:1010600084E092E00E94940742E365E08EE092E023
:101070000E94940783E00E94B0070895CF92DF9208
:10108000EF92FF920F931F93CF93DF93EC010E9497
:10109000F60648E260E084E192E00E94940740E3B3
:1010A00066E08BE192E00E94940786E00E94B00720
:1010B00048E262E081E30E94650748E263E082E380
:1010C0000E94650748E264E083E30E946507288187
:1010D00039813695279536952795ABE7B4E10E947F
:1010E000720D7C01F694E79442E362E080E38E0D9A
:1010F0000E94650714E61E9D60011F9DD00C1124FF
:10110000288139812C193D09ADECBCEC0E94720D8F
:101110007C01F694E794F694E794F694E79448E318
:1011200062E080E38E0D0E946507888199818C19A9
:101130009D099701220F331F220F331F2E0D3F1DD4
:10114000220F331F821B930B4EE362E0805D0E94EF
:1011500065072A813B813695279536952795ABE71C
:10116000B4E10E94720D7C01F694E79442E363E0DF
:1011700080E38E0D0E9465071E9D60011F9DD00CAF
:1011800011242A813B812C193D09ADECBCEC0E9455
:10119000720D7C01F694E794F694E794F694E79444
:1011A00048E363E080E38E0D0E9465078A819B819E
:1011B0008C199D099701220F331F220F331F2E0D0B
:1011C0003F1D220F331F821B930B4EE363E0805DB4
:1011D0000E9465072C813D81369527953695279588
:1011E000ABE7B4E10E94720D6C01D694C79442E360
:1011F00064E080E38C0D0E9465071C9D70011D9DBD
:10120000F00C11242C813D812E193F09ADECBCEC72
:101210000E94720D8C0116950795169507951695E7
:10122000079548E364E080E3800F0E9465078C81A6
:101230009D818E199F099801220F331F220F331FA2
:10124000200F311F220F331F821B930B4EE364E0EC
:10125000805D0E946507DF91CF911F910F91FF90F4
:10126000EF90DF90CF9008950E94F60645E063E08E
:1012700080E292E00E94940744E165E085E392E019
:101280000E9494070895FF920F931F93CF93DF93CB
:101290008091BA02811106C0DF91CF911F910F9109
:1012A000FF9008950E948806D0E0C0E0F12C8F2DB9
:1012B0000E94C90680E00E94D106C09A8E010058A3
:1012C0001F4FE0910201F0910301EC0FFD1F80819F
:1012D0000E9492062196C017D10799F7F39488E0EF
:1012E000F812E5CF1092BA020E948E06D5CF1F9257
:1012F0000F920FB60F9211248F9381E08093BA0260
:101300008F910F900FBE0F901F901895CF93DF9382
:10131000EC01198218820E942C081C821B821E82FA
:101320001D8218861F8283E08A83DF91CF91089502
:10133000FC0181E090E0918380838FEF828381853F
:1013400092850E943409089522E030E0FC01318347
:10135000208326E0228303960E943E080895CF93BF
:10136000DF93EC01198218820E942C0883E08A83A3
:10137000DF91CF910895CF930E948A06C09883E0B1
:101380000E94920688E38A95F1F70E94960683E010
:101390008A95F1F70E94960683E08A95F1F70E94FC
:1013A0009606C82F0E948E061F92CF9386E492E085
:1013B0009F938F930E94280E8091BB020F900F90F5
:1013C0000F900F908C1711F0C11105C0C093BB0294
:1013D00080E0CF910895C093BB0281E0FACFCF9314
:1013E000DF93FC0120813181232BB1F4EC01FB015F
:1013F000808591858330910561F0029769F48A8137
:10140000853051F40E94F00783E08A830E94B00780
:1014100003C08A81833019F0DF91CF9108950E9433
:10142000F00785E08A830E94B007F6CFEF92FF9223
:101430000F931F93CF93DF93EC018B017A0180E030
:101440000E940505C8010E94CA05888199810197FB
:10145000D9F0C8010E94E005B801CE010E94EF0951
:1014600088819981892B09F06DC08A81833009F4C4
:1014700055C08A81853009F461C0DF91CF911F91F9
:101480000F91FF90EF90089586E592E00E943E0E46
:101490000E94530629853A85820F931F9A87898770
:1014A0009F938F938AE592E09F938F930E94280EDB
:1014B0000F900F900F900F90F70180819181892BF1
:1014C00041F589859A852B813C812817390788F455
:1014D0004D815E8158874F833E832D839C838B8310
:1014E000CE010E94A40982E090E0F70191838083FD
:1014F000C4CF2D813E812817390718F49E838D8330
:10150000EFCF2F8138852817390750F798878F83B9
:10151000E7CFB801C7010E94320DAFCF0E94BB09CF
:10152000811106C088819981892B09F4A2CF0AC054
:101530001A861986CE010E9498099FCF0E94BB0986
:10154000811115C088819981029709F096CF8A810F
:10155000863009F092CF0E94BB09882309F48DCF11
:10156000198218820E942C0883E08A8386CFCE01DC
:101570000E94A40982CFCF93C82F0E948C0683E0DB
:101580000E9492068C2F0E9492060E949606C82FF7
:101590000E948E068C2FCF910895CF93DF93D82F82
:1015A000C62F0E948C0682E00E9492068D2F0E9418
:1015B00092068C2F0E9492060E948E06DF91CF9198
:1015C0000895CF930E948C0680EA0E9492060E94A2
:1015D00096060E949606C82F0E948E068C2FCF91E9
:1015E0000895CF93DF93EC010E948C06209769F059
:1015F000C130D10571F0C230D10579F0239789F05F
:101600000E948E06DF91CF91089587E80E9492068E
:10161000F7CF81E80E949206F3CF82E80E949206FB
:10162000EFCF84E80E949206EBCF1F93CF93DF9316
:10163000182FD62FC42F0E948C0685E00E94920698
:10164000812F0E9492068D2F0E9492068C2F0E945D
:1016500092060E948E06DF91CF911F9108950E94FD
:101660008C0680EC0E9492060E948E0608950E94CD
:101670002F0B8EE00E94BB0A807E803849F08CE6FA
:1016800092E00E943E0E40E860EE8FE00E94150B53
:1016900080E008950E94370B8BB780648BBF85B7BD
:1016A000826085BF83B78D6083BF89B7816089BF42
:1016B00080E381BF60E080E00E94CD0A60E081E0CD
:1016C0000E94CD0A60E084E00E94CD0A60E085E0DF
:1016D0000E94CD0A60E080E20E94CD0A60E681E2CD
:1016E0000E94CD0A40E060EC8AE20E94150B47E2BE
:1016F0006FE38AE20E94150B41E16FEF89E20E94DD
:10170000150B42E060E088E20E94150B41E061E0C9
:101710008BE20E94150B40E06CE18BE20E94150BFE
:1017200040E061E08CE20E94150B40E060EE8FE04B
:101730000E94150B0895AF92BF92CF92DF92FF9255
:101740000F931F93CF93DF93EC0108811981F02E43
:10175000FF0CFF0CFF0CFF0CFF0C16950795169560
:101760000795169507958B859C85009709F083C092
:101770000E94E10A8475E1F7602F81E30E94CD0A9F
:101780006F2D82E30E94CD0A602F81E40E94CD0A72
:101790006F2D82E40E94CD0A602F81E50E94CD0A60
:1017A0006F2D82E50E94CD0A6A8585E30E94CD0AED
:1017B0006A8585E40E94CD0A6A8585E50E94CD0A86
:1017C0008A85882309F449C06E0182E0C80ED11CC5
:1017D00056010F2EF6E3FF2EF02D10E000E0F5018C
:1017E00061915F018F2D0E94CD0A0F5F1F4F8A8587
:1017F000F3948017110609F094F7882371F10F2EE6
:10180000F6E4FF2EF02D10E000E0F60161916F018B
:101810008F2D0E94CD0A0F5F1F4FF3948A8580178A
:10182000110609F094F78823C1F06E01F2E0CF0EA3
:10183000D11C0F2EF6E5FF2EF02D10E000E0F60192
:1018400061916F018F2D0E94CD0A0F5F1F4FF3949E
:101850008A858017110609F094F78B859C850E9474
:10186000F10ADF91CF911F910F91FF90DF90CF9000
:10187000BF90AF90089581309105B1F1823091050C
:1018800009F462C0039769F70E94E10A86FDFCCF64
:10189000602F81E50E94CD0A6F2D82E50E94CD0A5E
:1018A0006A8585E50E94CD0A8A858823C1F06E018C
:1018B000F2E0CF0ED11C0F2EF6E5FF2EF02D10E03A
:1018C00000E0F60161916F018F2D0E94CD0A0F5F3C
:1018D0001F4FF3948A858017110609F094F78B85C2
:1018E0009C850E94F10ABDCF0E94E10A82FDFCCFD7
:1018F000602F81E30E94CD0A6F2D82E30E94CD0A02
:101900006A8585E30E94CD0A8A858823C1F06E012D
:10191000F2E0CF0ED11C0F2EF6E3FF2EF02D10E0DB
:1019200000E0F60161916F018F2D0E94CD0A0F5FDB
:101930001F4FF3948A858017110609F094F78B8561
:101940009C850E94F10A8DCF0E94E10A84FDFCCFA4
:10195000602F81E40E94CD0A6F2D82E40E94CD0A9F
:101960006A8585E40E94CD0A8A858823C1F06E01CC
:10197000F2E0CF0ED11C0F2EF6E4FF2EF02D10E07A
:1019800000E0F60161916F018F2D0E94CD0A0F5F7B
:101990001F4FF3948A858017110609F094F78B8501
:1019A0009C850E94F10A5DCFCF92DF92EF92FF9269
:1019B0000F931F93CF937C019091BD02911108C0AA
:1019C000CF911F910F91FF90EF90DF90CF900895EE
:1019D00081E60E94BB0A28E0829FC0011124F70122
:1019E0009183808382E60E94BB0AF70120813181C6
:1019F000282B3183208385E60E94BB0A8F70F70174
:101A000082878823C9F087010E5F1F4FC6E68EEFDD
:101A10009FEF6C01CE18DF088C2F0E94BB0AF801E3
:101A200081938F01CF5FF7012285C601800F911F3F
:101A30002817190609F084F7F70182811F928F9306
:101A40008EE992E09F938F930E94280E1092BD0220
:101A500040E061E08CE20E94150B0F900F900F9018
:101A60000F90AECF2091BC02211101C00895DB017F
:101A7000FC0181E090E09487838782E090E091838D
:101A8000808384E0828711968C91119782838C9158
:101A9000838313968C911397848312968C918583FC
:101AA000CF010E949B0BE2CF1F920F920FB60F92B5
:101AB00011248F9381E08093BD028F910F900FBE10
:101AC0000F901F9018951F920F920FB60F9211242E
:101AD0008F9381E08093BC028F910F900FBE0F9087
:101AE0001F901895A29FB001B39FC001A39F700DD6
:101AF000811D1124911DB29F700D811D1124911D16
:101B000008958F929F92AF92BF92CF92DF92EF9201
:101B1000FF92CF93DF93EC01688179818A819B8169
:101B2000611571058105910521F464E279ED8BE57C
:101B300097E02DE133EF41E050E00E942F12490180
:101B40005A019B01AC01A7EAB1E40E944E126B015D
:101B50007C01ACEEB4EFA50194010E945C12DC01A3
:101B6000CB018C0D9D1DAE1DBF1DB7FF03C001979E
:101B7000A109B04888839983AA83BB839F77DF91AB
:101B8000CF91FF90EF90DF90CF90BF90AF909F905C
:101B90008F9008950E94810D089584E091E00E9445
:101BA000810D0895B0E0A0E08093040190930501B9
:101BB000A0930601B093070108950F931F93CF934D
:101BC000DF93009759F46115710541F4F0E0E0E00E
:101BD000CF01DF91CF911F910F9108958B01EC01FF
:101BE0006EE070E081E090E00E944310FC01892BE0
:101BF00069F380E883830115110571F0138702876B
:101C000081E8838380913E0390913F03892B21F4E7
:101C1000F0933F03E0933E032097D1F2D187C08732
:101C20008381826083838091400390914103892B5B
:101C300079F6F0934103E093400380914203909141
:101C40004303892B29F6F0934303E0934203C0CF6B
:101C5000B0E0A0E0EEE2FEE00C947112AE014B5F4A
:101C60005F4FFA0161917191AF01809140039091B2
:101C700041030E94690EE2E00C948D120F931F93B2
:101C8000CF93DF93E0914003F09141032381EC0176
:101C900010E000E021FD08C00FEF1FEF14C0099510
:101CA000892B11F00FEF1FEF899160914003709124
:101CB0004103DB011896ED91FC918111F0CF8AE090
:101CC0000995892B49F7C801DF91CF911F910F9199
:101CD0000895ABE0B0E0EFE6FEE00C9461127C0109
:101CE0003B018A01FC0117821682838181FFC8C1F2
:101CF000CE0101965C01F7019381F30193FD85917B
:101D000093FF81913F01882309F453C1853239F44F
:101D100093FD859193FF81913F01853229F4B701AD
:101D200090E00E94A111E7CF912C212C312CFFE1F2
:101D3000F31538F08B3211F190F4803209F18332CF
:101D400029F137FC3CC020ED280F2A3050F536FE33
:101D500020C08AE0989E200D1124922E06C08D325C
:101D600091F0803371F7689430F8F30193FD859119
:101D700093FF81913F018111DACF21C0689431F83E
:101D8000689432F8F2CF689433F8EFCF689434F85F
:101D9000ECCFEAE02E9E200D1124222E689435F817
:101DA000E4CF8E3229F436FC04C1689436F8DDCFD6
:101DB0008C3619F4689437F8D8CF8836B1F2982F5A
:101DC0009F7D95549330E0F08336A1F18337C1F1C4
:101DD000833509F063C02801F2E04F0E511CF80171
:101DE000C080D180692D70E036FC02C06FEF7FEFBC
:101DF000C6010E9484114C01689437F882010AC020
:101E00000C5F1F4FFFE3F98388248394912C6501B5
:101E1000E89437F833FE2DC0522C8114910471F5EB
:101E2000552009F468CFB70180E290E00E94A1112B
:101E30005A94F6CFF801808189830E5F1F4FE4CF5B
:101E40002801F2E04F0E511CF801C080D180692DAD
:101E500070E036FC02C06FEF7FEFC6010E94961162
:101E60004C018201D5CFB70180E290E00E94A11120
:101E70002A942814190409F0B0F7CECFF60137FCE4
:101E8000859137FE81916F01B70190E00E94A11109
:101E900051105A94F1E08F1A9108BFCF843619F08F
:101EA000893609F077C0F80137FE6BC06081718117
:101EB000828193810C5F1F4FF32DFF763F2E97FF9A
:101EC00009C090958095709561957F4F8F4F9F4F7A
:101ED000689437F82AE030E0A5010E94D111C82E9D
:101EE000CA188C2C432C36FE0CC0E89440F8C91458
:101EF00040F434FE05C032FC03C0F32DFE7E4F2EAD
:101F0000892C44FE95C0FE01EC0DF11D80818033CB
:101F100009F087C0242D297E422E842D8870582EEA
:101F200043FC95C040FE8FC09C2C821418F42C0CEE
:101F3000922C981844FE91C0B70180E390E00E9473
:101F4000A11142FE09C088E790E041FE02C088E589
:101F500090E0B7010E94A111C91408F48AC0CA9484
:101F6000D12C9FEFC91AD90ACA0CDB1CF601829149
:101F70006F01B70190E00E94A111AC14BD04B1F74C
:101F80004FCF60817181072E000C880B990B0E5F7B
:101F90001F4F92CFD32CE894D4F82AE030E0853755
:101FA00039F1232D297FD22E8F3601F148F488355F
:101FB000A9F0F701868197812B96E2E10C947D12BE
:101FC000803749F08837A9F7D4FE02C06894D2F868
:101FD00020E130E00DC06894D4F8F6CF34FE03C0A1
:101FE000822F8660D82E20E132E002C028E030E067
:101FF000F801D7FE0FC060817181828193810C5FEF
:102000001F4FA5010E94D111C82ECA183D2CE8947B
:1020100037F867CF6081718190E080E00E5F1F4FDD
:10202000F0CF42FC02C0839478CF8394839475CF21
:10203000842D867809F471CFF6CFB70180E290E065
:102040000E94A11183948214C0F3512C73CF522C9F
:102050005818821408F46ECFF8CF842D867809F4CE
:102060007BCF8BE241FE80E247FC8DE2B70190E03E
:1020700071CFB70180E390E00E94A1119A946CCFD8
:102080008FEF9FEF99CF0F931F93CF93DF93869F8F
:102090008001879F100D969F100D1124C8010E948A
:1020A0005F10EC01009729F0A80170E060E00E9449
:1020B0008F11CE01DF91CF911F910F9108950F9352
:1020C0001F93CF93DF938230910510F482E090E06C
:1020D000E0914603F091470330E020E0B0E0A0E05B
:1020E000309799F42115310509F44AC0281B390BA2
:1020F00024303105D8F58A819B816115710589F1FC
:10210000FB0193838283FE0111C0408151810281D2
:10211000138148175907E0F04817590799F41097A9
:1021200061F012960C93129713961C933296CF017E
:10213000DF91CF911F910F91089500934603109363
:102140004703F4CF2115310551F04217530738F0FA
:10215000A901DB019A01BD01DF01F801C1CFEF0147
:10216000F9CF9093470380934603CDCFFE01E20F52
:10217000F31F819391932250310939832883D7CF5C
:102180002091440330914503232B41F420910A010F
:1021900030910B01309345032093440320910801B3
:1021A000309109012115310541F42DB73EB7409119
:1021B0000C0150910D01241B350BE0914403F0916B
:1021C0004503E217F307A0F42E1B3F0B281739072E
:1021D00078F0AC014E5F5F4F2417350748F04E0F83
:1021E0005F1F5093450340934403819391939FCF86
:1021F000F0E0E0E09CCFCF93DF930097E9F0FC01A3
:10220000329713821282A0914603B0914703ED01E9
:1022100030E020E01097A1F420813181820F931FDC
:1022200020914403309145032817390709F061C014
:10223000F0934503E0934403DF91CF910895EA01C1
:10224000CE17DF07E8F54A815B819E0141155105F4
:10225000B1F7E901FB83EA8349915991C40FD51F76
:10226000EC17FD0761F4808191810296840F951F20
:10227000E90199838883828193819B838A83F0E03B
:10228000E0E012968D919C9113970097B9F52D91EE
:102290003C911197CD010296820F931F2091440328
:1022A000309145032817390739F6309751F51092C8
:1022B000470310924603B0934503A0934403BCCF59
:1022C000D383C28340815181840F951FC817D907DA
:1022D00061F44E5F5F4F88819981480F591F518388
:1022E00040838A819B81938382832115310509F084
:1022F000B0CFF0934703E09346039ECFFD01DC018E
:10230000C0CF13821282D7CFFC010590615070407C
:102310000110D8F7809590958E0F9F1F0895DC01CE
:1023200001C06D9341505040E0F70895FC016150A9
:10233000704001900110D8F7809590958E0F9F1FE7
:1023400008950F931F93CF93DF93182F092FEB015D
:102350008B8181FD09C01FEF0FEF812F902FDF913F
:10236000CF911F910F91089582FF14C02E813F815C
:102370008C819D81281739073CF4E881F981CF01D0
:1023800001969983888310838E819F8101969F8314
:102390008E83E3CFE885F985812F0995892BA1F3F9
:1023A000DACFFA01AA27283051F1203181F1E894DF
:1023B0006F936E7F6E5F7F4F8F4F9F4FAF4FB1E038
:1023C0003ED0B4E03CD0670F781F891F9A1FA11D33
:1023D000680F791F8A1F911DA11D6A0F711D811D34
:1023E000911DA11D20D009F468943F912AE0269FF9
:1023F00011243019305D3193DEF6CF010895462F58
:102400004770405D4193B3E00FD0C9F7F6CF462F38
:102410004F70405D4A3318F0495D31FD40524193A1
:1024200002D0A9F7EACFB4E0A6959795879577955E
:102430006795BA95C9F700976105710508959B01E5
:10244000AC010A2E06945795479537952795BA956E
:10245000C9F7620F731F841F951FA01D0895052ED5
:1024600097FB1EF400940E94461257FD07D00E946D
:10247000981207FC03D04EF40C94461250954095E8
:10248000309521953F4F4F4F5F4F08959095809520
:10249000709561957F4F8F4F9F4F08950E94720DE9
:1024A000A59F900DB49F900DA49F800D911D1124A8
:1024B0000895B7FF0C944E120E944E12821B930B8C
:1024C00008952F923F924F925F926F927F928F92D8
:1024D0009F92AF92BF92CF92DF92EF92FF920F93B3
:1024E0001F93CF93DF93CDB7DEB7CA1BDB0B0FB6BD
:1024F000F894DEBF0FBECDBF09942A88398848887A
:102500005F846E847D848C849B84AA84B984C8840F
:10251000DF80EE80FD800C811B81AA81B981CE0F06
:10252000D11D0FB6F894DEBF0FBECDBFED010895EB
:10253000A1E21A2EAA1BBB1BFD010DC0AA1FBB1FC7
:10254000EE1FFF1FA217B307E407F50720F0A21B39
:10255000B30BE40BF50B661F771F881F991F1A94A6
:1025600069F760957095809590959B01AC01BD01D0
:08257000CF010895F894FFCF9C
:1025780034120016010000000000480320005374C4
:10258800617274696E67205352414D20746573748B
:102598002E2E2E005772697465207068617365204D
:1025A8006572726F723A206578745F72616D5B252F
:1025B80034645D203D2025303258202873686F75BB
:1025C8006C642062652025303258290A00526574EF
:1025D80072696576616C20706861736520657272D6
:1025E8006F723A206578745F72616D5B2534645D43
:1025F800203D2025303258202873686F756C642080
:1026080062652025303258290A005352414D207402
:1026180065737420636F6D706C6574656420776989
:102628007468200A253464206572726F7273206999
:102638006E20777269746520706861736520616EB9
:1026480064200A253464206572726F727320696E83
:102658002072657472696576616C20706861736553
:102668000A0A00496E76616C6964206368616E6E5F
:10267800656C2E00506C61792067616D650053634D
:102688006F72650053636F726573004261636B001C
:102698005468652067616D65206861732073746193
:1026A8007274656400596F752063616E20646F20D1
:1026B8007468697321004973207072657373656467
:1026C8003A2025750A004865690043757272656E7F
:1026D800742073636F72653A202575004D4350323C
:1026E800353135206973204E4F5420696E20636F51
:1026F8006E66696775726174696F6E206D6F646567
:102708002061667465722072657365742100526574
:0C2718006369657665643A2025750A0047
:00000001FF
