:100000000C9438000C9455000C9455000C94550039
:100010000C9455000C9455000C9455000C9455000C
:100020000C9455000C9455000C9455000C945500FC
:100030000C9455000C9455000C9455000C945500EC
:100040000C9455000C9455000C9455000C94CF0062
:100050000C9455000C94C0000C9455000C94550061
:100060000C9455000C9455000C9455000C945500BC
:1000700011241FBECFEFD4E0DEBFCDBF11E0A0E062
:10008000B1E0E6E9FAE002C005900D92AE30B107AA
:10009000D9F721E0AEE0B1E001C01D92A532B20770
:1000A000E1F70E9457000C9449050C9400008FE181
:1000B00090E00E947700789463E970E080E890E037
:1000C0000E94EB009093120180931101EBE1F1E0AB
:1000D000938382839183808386E091E09F938F93C3
:1000E0000E94360181E08ABB0F900F90FFCF21E084
:1000F0002093100190BD89B98AB1886B8AB908959F
:10010000CF9390911001992331F0C82F8A3039F0A4
:1001100010921001CCB990E080E0CF9108958DE06D
:100120000E948000F5CF90910F0180910E019817E9
:10013000D1F3E0910F01F0E0ED5EFE4F8081209160
:100140000F0130E090910E019217130699F094F090
:10015000A9014F5F5F4FFA01ED5EFE4F90812D5E6A
:100160003E4FF901908390910E019A019417150664
:1001700009F074F790910E01915090930E0108953B
:100180001F920F920FB60F9211248F9381E08093EC
:1001900010018F910F900FBE0F901F9018951F9216
:1001A0000F920FB60F9211248F93EF93FF93E0916C
:1001B0000E01F0E08CB1ED5EFE4F808380910E0168
:1001C0008F5F80930E01FF91EF918F910F900FBE83
:1001D0000F901F9018950F931F93CF93DF93009765
:1001E00059F46115710541F4F0E0E0E0CF01DF91D1
:1001F000CF911F910F9108958B01EC016EE070E09B
:1002000081E090E00E942603FC01892B69F380E8DD
:1002100083830115110571F01387028781E88383B9
:1002200080911B0190911C01892B21F4F0931C01FA
:10023000E0931B012097D1F2D187C0878381826030
:10024000838380911D0190911E01892B79F6F09393
:100250001E01E0931D0180911F0190912001892BC7
:1002600029F6F0932001E0931F01C0CFB0E0A0E099
:10027000ECE3F1E00C942205AE014B5F5F4FFA0115
:1002800061917191AF0180911D0190911E010E94B9
:100290004C01E2E00C943E05ABE0B0E0E2E5F1E0B9
:1002A0000C9412057C013B018A01FC011782168225
:1002B000838181FFC8C1CE0101965C01F701938162
:1002C000F30193FD859193FF81913F01882309F408
:1002D00053C1853239F493FD859193FF81913F019C
:1002E000853229F4B70190E00E948404E7CF912C75
:1002F000212C312CFFE1F31538F08B3211F190F401
:10030000803209F1833229F137FC3CC020ED280FFF
:100310002A3050F536FE20C08AE0989E200D112428
:10032000922E06C08D3291F0803371F7689430F8C8
:10033000F30193FD859193FF81913F018111DACF04
:1003400021C0689431F8689432F8F2CF689433F899
:10035000EFCF689434F8ECCFEAE02E9E200D112404
:10036000222E689435F8E4CF8E3229F436FC04C18D
:10037000689436F8DDCF8C3619F4689437F8D8CF06
:100380008836B1F2982F9F7D95549330E0F08336F4
:10039000A1F18337C1F1833509F063C02801F2E090
:1003A0004F0E511CF801C080D180692D70E036FCE1
:1003B00002C06FEF7FEFC6010E9467044C01689492
:1003C00037F882010AC00C5F1F4FFFE3F9838824CE
:1003D0008394912C6501E89437F833FE2DC0522C9C
:1003E0008114910471F5552009F468CFB70180E2BA
:1003F00090E00E9484045A94F6CFF80180818983AA
:100400000E5F1F4FE4CF2801F2E04F0E511CF801A0
:10041000C080D180692D70E036FC02C06FEF7FEFA5
:10042000C6010E9479044C018201D5CFB70180E258
:1004300090E00E9484042A942814190409F0B0F76B
:10044000CECFF60137FC859137FE81916F01B70160
:1004500090E00E94840451105A94F1E08F1A9108A0
:10046000BFCF843619F0893609F077C0F80137FE1E
:100470006BC060817181828193810C5F1F4FF32D6E
:10048000FF763F2E97FF09C09095809570956195F6
:100490007F4F8F4F9F4F689437F82AE030E0A501D7
:1004A0000E94B404C82ECA188C2C432C36FE0CC0F3
:1004B000E89440F8C91440F434FE05C032FC03C08F
:1004C000F32DFE7E4F2E892C44FE95C0FE01EC0DCF
:1004D000F11D8081803309F087C0242D297E422EB2
:1004E000842D8870582E43FC95C040FE8FC09C2CF4
:1004F000821418F42C0C922C981844FE91C0B70169
:1005000080E390E00E94840442FE09C088E790E006
:1005100041FE02C088E590E0B7010E948404C9143E
:1005200008F48AC0CA94D12C9FEFC91AD90ACA0C00
:10053000DB1CF60182916F01B70190E00E948404F8
:10054000AC14BD04B1F74FCF60817181072E000C50
:10055000880B990B0E5F1F4F92CFD32CE894D4F8E1
:100560002AE030E0853739F1232D297FD22E8F36CE
:1005700001F148F48835A9F0F701868197812B961F
:10058000E2E10C942E05803749F08837A9F7D4FEB4
:1005900002C06894D2F820E130E00DC06894D4F82D
:1005A000F6CF34FE03C0822F8660D82E20E132E0E1
:1005B00002C028E030E0F801D7FE0FC060817181F1
:1005C000828193810C5F1F4FA5010E94B404C82E45
:1005D000CA183D2CE89437F867CF6081718190E0AC
:1005E00080E00E5F1F4FF0CF42FC02C0839478CFB3
:1005F0008394839475CF842D867809F471CFF6CFD8
:10060000B70180E290E00E94840483948214C0F3D6
:10061000512C73CF522C5818821408F46ECFF8CF97
:10062000842D867809F47BCF8BE241FE80E247FC83
:100630008DE2B70190E071CFB70180E390E00E94B6
:1006400084049A946CCF8FEF9FEF99CF0F931F93F1
:10065000CF93DF93869F8001879F100D969F100D8B
:100660001124C8010E944203EC01009729F0A8015F
:1006700070E060E00E947204CE01DF91CF911F9183
:100680000F9108950F931F93CF93DF9382309105BD
:1006900010F482E090E0E0912301F091240130E039
:1006A00020E0B0E0A0E0309799F42115310509F47D
:1006B0004AC0281B390B24303105D8F58A819B812B
:1006C0006115710589F1FB0193838283FE0111C0DD
:1006D000408151810281138148175907E0F0481782
:1006E000590799F4109761F012960C93129713968C
:1006F0001C933296CF01DF91CF911F910F910895F6
:100700000093230110932401F4CF2115310551F0FA
:100710004217530738F0A901DB019A01BD01DF013F
:10072000F801C1CFEF01F9CF909324018093230109
:10073000CDCFFE01E20FF31F819391932250310937
:1007400039832883D7CF2091210130912201232B97
:1007500041F4209102013091030130932201209352
:10076000210120910001309101012115310541F451
:100770002DB73EB74091040150910501241B350B64
:10078000E0912101F0912201E217F307A0F42E1B62
:100790003F0B2817390778F0AC014E5F5F4F2417E5
:1007A000350748F04E0F5F1F5093220140932101FF
:1007B000819391939FCFF0E0E0E09CCFCF93DF93C4
:1007C0000097E9F0FC01329713821282A091230175
:1007D000B0912401ED0130E020E01097A1F42081D8
:1007E0003181820F931F209121013091220128171E
:1007F000390709F061C0F0932201E0932101DF91F4
:10080000CF910895EA01CE17DF07E8F54A815B81B1
:100810009E0141155105B1F7E901FB83EA83499136
:100820005991C40FD51FEC17FD0761F480819181A8
:100830000296840F951FE9019983888382819381B1
:100840009B838A83F0E0E0E012968D919C91139750
:100850000097B9F52D913C911197CD010296820F29
:10086000931F20912101309122012817390739F671
:10087000309751F51092240110922301B093220178
:10088000A0932101BCCFD383C28340815181840FC7
:10089000951FC817D90761F44E5F5F4F8881998112
:1008A000480F591F518340838A819B8193838283A0
:1008B0002115310509F0B0CFF0932401E093230115
:1008C0009ECFFD01DC01C0CF13821282D7CFFC0185
:1008D0000590615070400110D8F7809590958E0F6B
:1008E0009F1F0895DC0101C06D9341505040E0F717
:1008F0000895FC016150704001900110D8F7809577
:1009000090958E0F9F1F08950F931F93CF93DF93A2
:10091000182F092FEB018B8181FD09C01FEF0FEF0D
:10092000812F902FDF91CF911F910F91089582FF1A
:1009300014C02E813F818C819D81281739073CF49A
:10094000E881F981CF0101969983888310838E8194
:100950009F8101969F838E83E3CFE885F985812F60
:100960000995892BA1F3DACFFA01AA27283051F192
:10097000203181F1E8946F936E7F6E5F7F4F8F4FD0
:100980009F4FAF4FB1E03ED0B4E03CD0670F781F2F
:10099000891F9A1FA11D680F791F8A1F911DA11D14
:1009A0006A0F711D811D911DA11D20D009F468944D
:1009B0003F912AE0269F11243019305D3193DEF6F5
:1009C000CF010895462F4770405D4193B3E00FD0AB
:1009D000C9F7F6CF462F4F70405D4A3318F0495D96
:1009E00031FD4052419302D0A9F7EACFB4E0A69579
:1009F0009795879577956795BA95C9F7009761059B
:100A0000710508959B01AC010A2E069457954795F0
:100A100037952795BA95C9F7620F731F841F951FE5
:100A2000A01D08952F923F924F925F926F927F92F6
:100A30008F929F92AF92BF92CF92DF92EF92FF92EE
:100A40000F931F93CF93DF93CDB7DEB7CA1BDB0B9A
:100A50000FB6F894DEBF0FBECDBF09942A8839883F
:100A600048885F846E847D848C849B84AA84B98446
:100A7000C884DF80EE80FD800C811B81AA81B98152
:100A8000CE0FD11D0FB6F894DEBF0FBECDBFED0166
:060A90000895F894FFCF69
:0E0A9600000025012000486569207061000005
:00000001FF
