:100000000C9438000C9455000C9455000C94550039
:100010000C9455000C9455000C9455000C9455000C
:100020000C9455000C9455000C9455000C945500FC
:100030000C9455000C9455000C9455000C945500EC
:100040000C9455000C9455000C9455000C941F0111
:100050000C9455000C94FA000C9455000C94550027
:100060000C9455000C9455000C9455000C945500BC
:1000700011241FBECFEFD4E0DEBFCDBF11E0A0E062
:10008000B1E0E6E3FBE002C005900D92A231B107BA
:10009000D9F721E0A2E1B1E001C01D92A03AB20778
:1000A000E1F70E9457000C9499050C9400008FE131
:1000B00090E00E94800078940E94F30086E091E036
:1000C0009F938F930E94860181E08ABB0F900F90CF
:1000D000C1E009C0CBBB0BC083E60E94860088EA62
:1000E00091E60197F1F70E94C200813699F383E609
:1000F0000E9486000E94C200813671F71BBAECCFC5
:1001000090BD89B98AB1886B8AB90895909113011D
:10011000913430F5F8942091130130E09091120160
:10012000921713068CF4A90141505109FA01EA5AB9
:10013000FE4F90812A5A3E4FF9019083909112010F
:100140009A01941715067CF3909113019F5F909389
:100150001301E0911201F0E0EA5AFE4F8083789497
:1001600090E080E00895CF93C82F8A3039F08C2F2B
:100170000E94860090E080E0CF9108958DE00E947B
:10018000B300F5CF90911501809114019817D1F328
:10019000E0911501F0E0EA5EFE4F808120911501AB
:1001A00030E0909114019217130699F094F0A90190
:1001B0004F5F5F4FFA01EA5EFE4F90812A5E3E4F2D
:1001C000F9019083909114019A019417150609F092
:1001D00074F79091140191509093140108950E9426
:1001E000C20080E008956FEE70E083EB90E00E9423
:1001F0003B0108951F920F920FB60F9211248F9317
:100200009F93EF93FF9390911301809112018917AF
:1002100068F4E0911301E150FF0BEA5AFE4F808130
:100220008CB980911301815080931301FF91EF915C
:100230009F918F910F900FBE0F901F9018951F9256
:100240000F920FB60F9211248F93EF93FF93E091CB
:100250001401F0E08CB1EA5EFE4F808380911401BE
:100260008F5F80931401FF91EF918F910F900FBEDC
:100270000F901F9018950F931F93CF93DF930097C4
:1002800059F46115710541F4F0E0E0E0CF01DF9130
:10029000CF911F910F9108958B01EC016EE070E0FA
:1002A00081E090E00E947603FC01892B69F380E8ED
:1002B00083830115110571F01387028781E8838319
:1002C0008091960190919701892B21F4F0939701E9
:1002D000E09396012097D1F2D187C0878381826015
:1002E00083838091980190919901892B79F6F093FD
:1002F0009901E093980180919A0190919B01892B3B
:1003000029F6F0939B01E0939A01C0CFB0E0A0E002
:10031000ECE8F1E00C947205AE014B5F5F4FFA011F
:1003200061917191AF0180919801909199010E9422
:100330009C01E2E00C948E05ABE0B0E0E2EAF1E073
:100340000C9462057C013B018A01FC011782168234
:10035000838181FFC8C1CE0101965C01F7019381C1
:10036000F30193FD859193FF81913F01882309F467
:1003700053C1853239F493FD859193FF81913F01FB
:10038000853229F4B70190E00E94D404E7CF912C84
:10039000212C312CFFE1F31538F08B3211F190F460
:1003A000803209F1833229F137FC3CC020ED280F5F
:1003B0002A3050F536FE20C08AE0989E200D112488
:1003C000922E06C08D3291F0803371F7689430F828
:1003D000F30193FD859193FF81913F018111DACF64
:1003E00021C0689431F8689432F8F2CF689433F8F9
:1003F000EFCF689434F8ECCFEAE02E9E200D112464
:10040000222E689435F8E4CF8E3229F436FC04C1EC
:10041000689436F8DDCF8C3619F4689437F8D8CF65
:100420008836B1F2982F9F7D95549330E0F0833653
:10043000A1F18337C1F1833509F063C02801F2E0EF
:100440004F0E511CF801C080D180692D70E036FC40
:1004500002C06FEF7FEFC6010E94B7044C016894A1
:1004600037F882010AC00C5F1F4FFFE3F98388242D
:100470008394912C6501E89437F833FE2DC0522CFB
:100480008114910471F5552009F468CFB70180E219
:1004900090E00E94D4045A94F6CFF80180818983B9
:1004A0000E5F1F4FE4CF2801F2E04F0E511CF80100
:1004B000C080D180692D70E036FC02C06FEF7FEF05
:1004C000C6010E94C9044C018201D5CFB70180E268
:1004D00090E00E94D4042A942814190409F0B0F77B
:1004E000CECFF60137FC859137FE81916F01B701C0
:1004F00090E00E94D40451105A94F1E08F1A9108B0
:10050000BFCF843619F0893609F077C0F80137FE7D
:100510006BC060817181828193810C5F1F4FF32DCD
:10052000FF763F2E97FF09C0909580957095619555
:100530007F4F8F4F9F4F689437F82AE030E0A50136
:100540000E940405C82ECA188C2C432C36FE0CC001
:10055000E89440F8C91440F434FE05C032FC03C0EE
:10056000F32DFE7E4F2E892C44FE95C0FE01EC0D2E
:10057000F11D8081803309F087C0242D297E422E11
:10058000842D8870582E43FC95C040FE8FC09C2C53
:10059000821418F42C0C922C981844FE91C0B701C8
:1005A00080E390E00E94D40442FE09C088E790E016
:1005B00041FE02C088E590E0B7010E94D404C9144E
:1005C00008F48AC0CA94D12C9FEFC91AD90ACA0C60
:1005D000DB1CF60182916F01B70190E00E94D40408
:1005E000AC14BD04B1F74FCF60817181072E000CB0
:1005F000880B990B0E5F1F4F92CFD32CE894D4F841
:100600002AE030E0853739F1232D297FD22E8F362D
:1006100001F148F48835A9F0F701868197812B967E
:10062000E2E10C947E05803749F08837A9F7D4FEC3
:1006300002C06894D2F820E130E00DC06894D4F88C
:10064000F6CF34FE03C0822F8660D82E20E132E040
:1006500002C028E030E0F801D7FE0FC06081718150
:10066000828193810C5F1F4FA5010E940405C82E53
:10067000CA183D2CE89437F867CF6081718190E00B
:1006800080E00E5F1F4FF0CF42FC02C0839478CF12
:100690008394839475CF842D867809F471CFF6CF37
:1006A000B70180E290E00E94D40483948214C0F3E6
:1006B000512C73CF522C5818821408F46ECFF8CFF7
:1006C000842D867809F47BCF8BE241FE80E247FCE3
:1006D0008DE2B70190E071CFB70180E390E00E9416
:1006E000D4049A946CCF8FEF9FEF99CF0F931F9301
:1006F000CF93DF93869F8001879F100D969F100DEB
:100700001124C8010E949203EC01009729F0A8016E
:1007100070E060E00E94C204CE01DF91CF911F9192
:100720000F9108950F931F93CF93DF93823091051C
:1007300010F482E090E0E0919E01F0919F0130E0A2
:1007400020E0B0E0A0E0309799F42115310509F4DC
:100750004AC0281B390B24303105D8F58A819B818A
:100760006115710589F1FB0193838283FE0111C03C
:10077000408151810281138148175907E0F04817E1
:10078000590799F4109761F012960C9312971396EB
:100790001C933296CF01DF91CF911F910F91089555
:1007A00000939E0110939F01F4CF2115310551F064
:1007B0004217530738F0A901DB019A01BD01DF019F
:1007C000F801C1CFEF01F9CF90939F0180939E0173
:1007D000CDCFFE01E20FF31F819391932250310997
:1007E00039832883D7CF20919C0130919D01232B01
:1007F00041F4209102013091030130939D01209337
:100800009C0120910001309101012115310541F435
:100810002DB73EB74091040150910501241B350BC3
:10082000E0919C01F0919D01E217F307A0F42E1BCB
:100830003F0B2817390778F0AC014E5F5F4F241744
:10084000350748F04E0F5F1F50939D0140939C0168
:10085000819391939FCFF0E0E0E09CCFCF93DF9323
:100860000097E9F0FC01329713821282A0919E0159
:10087000B0919F01ED0130E020E01097A1F42081BC
:100880003181820F931F20919C0130919D01281787
:10089000390709F061C0F0939D01E0939C01DF915D
:1008A000CF910895EA01CE17DF07E8F54A815B8111
:1008B0009E0141155105B1F7E901FB83EA83499196
:1008C0005991C40FD51FEC17FD0761F48081918108
:1008D0000296840F951FE901998388838281938111
:1008E0009B838A83F0E0E0E012968D919C911397B0
:1008F0000097B9F52D913C911197CD010296820F89
:10090000931F20919C0130919D012817390739F6DA
:10091000309751F510929F0110929E01B0939D0166
:10092000A0939C01BCCFD383C28340815181840FAB
:10093000951FC817D90761F44E5F5F4F8881998171
:10094000480F591F518340838A819B8193838283FF
:100950002115310509F0B0CFF0939F01E0939E017E
:100960009ECFFD01DC01C0CF13821282D7CFFC01E4
:100970000590615070400110D8F7809590958E0FCA
:100980009F1F0895DC0101C06D9341505040E0F776
:100990000895FC016150704001900110D8F78095D6
:1009A00090958E0F9F1F08950F931F93CF93DF9302
:1009B000182F092FEB018B8181FD09C01FEF0FEF6D
:1009C000812F902FDF91CF911F910F91089582FF7A
:1009D00014C02E813F818C819D81281739073CF4FA
:1009E000E881F981CF0101969983888310838E81F4
:1009F0009F8101969F838E83E3CFE885F985812FC0
:100A00000995892BA1F3DACFFA01AA27283051F1F1
:100A1000203181F1E8946F936E7F6E5F7F4F8F4F2F
:100A20009F4FAF4FB1E03ED0B4E03CD0670F781F8E
:100A3000891F9A1FA11D680F791F8A1F911DA11D73
:100A40006A0F711D811D911DA11D20D009F46894AC
:100A50003F912AE0269F11243019305D3193DEF654
:100A6000CF010895462F4770405D4193B3E00FD00A
:100A7000C9F7F6CF462F4F70405D4A3318F0495DF5
:100A800031FD4052419302D0A9F7EACFB4E0A695D8
:100A90009795879577956795BA95C9F700976105FA
:100AA000710508959B01AC010A2E06945795479550
:100AB00037952795BA95C9F7620F731F841F951F45
:100AC000A01D08952F923F924F925F926F927F9256
:100AD0008F929F92AF92BF92CF92DF92EF92FF924E
:100AE0000F931F93CF93DF93CDB7DEB7CA1BDB0BFA
:100AF0000FB6F894DEBF0FBECDBF09942A8839889F
:100B000048885F846E847D848C849B84AA84B984A5
:100B1000C884DF80EE80FD800C811B81AA81B981B1
:100B2000CE0FD11D0FB6F894DEBF0FBECDBFED01C5
:060B30000895F894FFCFC8
:100B36000000A0012000506F6C736566696E6772D5
:020B4600650048
:00000001FF
