:100000000C9460030C947D030C94200C0C947D03E1
:100010000C947D030C947D030C947D030C94B50625
:100020000C94EB080C947D030C947D030C947D03DD
:100030000C947D030C947D030C947D030C947D0340
:100040000C947D030C947D030C947D030C94470465
:100050000C947D030C9420040C947D030C947D037C
:100060000C947D030C947D030C947D030C947D0310
:1000700000000000005C00000C000C007C287C28C4
:1000800058DC68002410480028542840000C000068
:10009000007884008478000054385400107C1000EC
:1000A00080400000101010000040000060100C00A4
:1000B00038543800487C40004864580044542C00B0
:1000C0001C107C005C5424003854240064140C0080
:1000D00068542C0048543800004800008048000054
:1000E0001028440028282800442810000454080040
:1000F00038445C00781478007C5428003844280088
:100100007C4438007C5444007C140400384474005F
:100110007C107C00447C440020403C007C106C003F
:100120007C4040007C187C0078103C00384438004B
:100130007C1408003844B8007C146800485424003B
:10014000047C04007C407C003C603C007C307C00F3
:100150006C106C000C700C0064544C00007C44006B
:100160000C106000447C00000804080080808000BF
:1001700000040800304878007C48300030484800CF
:1001800030487C00306850001078140090A8780047
:100190007C08700050744000808074007C106800FF
:1001A000447C4000781078007808700030483000B7
:1001B000F82810003048F80078100800505828003F
:1001C000083C4800384078003840380078207800F3
:1001D0004830480098A0780048685800107884009B
:1001E000007C00008478100008040804000000006F
:1001F0000000005F00000007000700147F147F1458
:10020000242A7F2A1223130864623649552250009B
:1002100005030000001C2241000041221C00082AA6
:100220001C2A0808083E080800503000000808088A
:100230000808006060000020100804023E51494593
:100240003E00427F400042615149462141454B31C9
:100250001814127F1027454545393C4A4949300159
:10026000710905033649494936064949291E0036B0
:100270003600000056360000000814224114141401
:10028000141441221408000201510906324979412F
:100290003E7E1111117E7F494949363E414141223E
:1002A0007F4141221C7F494949417F090901013EA3
:1002B000414151327F0808087F00417F41002040C2
:1002C000413F017F081422417F404040407F0204AB
:1002D000027F7F0408107F3E4141413E7F090909AA
:1002E000063E4151215E7F09192946464949493157
:1002F00001017F01013F4040403F1F2040201F7F00
:100300002018207F631408146303047804036151E8
:1003100049454300007F4141020408102041417FCC
:100320000000040201020440404040400001020479
:100330000020545454787F4844443838444444207E
:10034000384444487F3854545418087E0901020840
:100350001454543C7F0804047800447D400020403D
:10036000443D00007F10284400417F40007C041879
:1003700004787C0804047838444444387C14141409
:1003800008081414187C7C080404084854545420A9
:10039000043F4440203C4040207C1C2040201C3C2A
:1003A0004030403C44281028440C5050503C446499
:1003B000544C44000836410000007F0000004136E4
:1003C000080002010302010000000000000000001C
:1003D000065F5F0600000000070700070700001423
:1003E0007F7F147F7F1400242E6B6B3A120000462F
:1003F0006630180C666200307A4F5D377A48000428
:1004000007030000000000001C3E634100000000E4
:1004100041633E1C000000082A3E1C1C3E2A0808BE
:10042000083E3E0808000000A0E060000000000850
:100430000808080808000000006060000000006074
:1004400030180C060301003E7F594D7F3E000042EC
:10045000427F7F40400000627359496F660000226E
:100460006349497F360000181C16137F7F10002750
:100470006745457D3900003C7E4B497930000003DB
:100480006371190F070000367F49497F3600000667
:100490004F49693F1E000000006C6C000000000026
:1004A000A0EC6C00000000081C3663410000001442
:1004B00014141414140000004163361C08000002D8
:1004C0000351590F0600003E7F415D5D1F1E007CF9
:1004D0007E13137E7C0000417F7F49497F36001CDC
:1004E0003E634141632200417F7F41637F1C0041A5
:1004F0007F7F495D416300417F7F491D0103001CEF
:100500003E6341517372007F7F08087F7F000000C7
:10051000417F7F41000000307040417F3F0100413A
:100520007F7F081C776300417F7F41406070007FC0
:100530007F060C067F7F007F7F060C187F7F001CE4
:100540003E6341633E1C00417F7F49090F06001E48
:100550003F21717F5E0000417F7F19396F46002681
:10056000674D597B32000003417F7F410300007FCC
:100570007F40407F7F00001F3F60603F1F00007F83
:100580007F3018307F7F0063771C081C776300077B
:100590004F78784F0700006773594D47637100002B
:1005A0007F7F41410000000103060C18306000000D
:1005B00041417F7F000000080C0603060C08008004
:1005C000808080808080800000030704000000207D
:1005D0007454543C784000413F7F44447C38003898
:1005E0007C44446C280000307848493F7F40003804
:1005F0007C54545C180000487E7F49030200009838
:10060000BCA4A4F87C0400417F7F08047C7800002F
:10061000447D7D4000000040C484FD7D0000004119
:100620007F7F10386C440000417F7F400000007CD9
:100630007C0C180C7C78007C7C04047C78000038EE
:100640007C44447C38000084FCF8A4243C18001846
:100650003C24A4F8FC8400447C78441C1800004826
:100660005C54547424000000043E7F442400003C89
:100670007C40403C7C40001C3C60603C1C00003CDA
:100680007C6030607C3C00446C3810386C44009CCA
:10069000BCA0A0FC7C00004C64745C4C64000008AE
:1006A000083E7741410000000000777700000041DC
:1006B00041773E0808000002030103020301000025
:1006C00011241FBECFEFD4E0DEBFCDBF12E0A0E00B
:1006D000B1E0E8E7F3E202C005900D92A438B1075B
:1006E000D9F723E0A4E8B2E001C01D92AC31B20713
:1006F000E1F70E947F030C94BA110C940000CF9391
:10070000DF93CDB7DEB7A0970FB6F894DEBF0FBE6C
:10071000CDBF8FE190E00E94BE030E9419040E94A9
:1007200063040E94F1040E94C4060E9448070E94CC
:100730004D0A1C861B8681E08D8B83E08D8781E0CE
:1007400090E09F8B8E8BCE0101960E948105CE0199
:1007500048960E94FA0878940E94B708BE016F5F1D
:100760007F4FCE0148960E947909CE010B960E94D8
:10077000CF0BCE010B960E948B0AEECF90BD89B9AC
:100780008AB1886B8AB908952091850230E02F5F85
:100790003F4F2F733078909184029217E1F3E091EC
:1007A0008502F0E0EE52FD4F80832093850290E0B9
:1007B00080E00895CF93C82F8A3039F08C2F0E94A3
:1007C000C40390E080E0CF9108958DE00E94DA03A9
:1007D000F5CF90918702809186029817D1F3E0912E
:1007E0008702F0E0EE56FD4F80812091870230E0D5
:1007F000909186029217130699F094F0A9014F5F29
:100800005F4FFA01EE56FD4F90812E563D4FF90194
:100810009083909186029A019417150609F074F757
:100820009091860291509093860208950E94E90368
:10083000089566E174E08AED93E00E94CE0C08957D
:100840001F920F920FB60F9211248F939F93EF93E5
:10085000FF939091850280918402981779F0E0913E
:100860008402F0E0EE52FD4F80818CB980918402C9
:1008700090E001968F73907880938402FF91EF91BE
:100880009F918F910F900FBE0F901F9018951F9200
:100890000F920FB60F9211248F93EF93FF93E09175
:1008A0008602F0E08CB1EE56FD4F80838091860287
:1008B0008F5F80938602FF91EF918F910F900FBE13
:1008C0000F901F90189580E885BF80E280BF089543
:1008D000CF92DF92EF92FF920F931F93CF93DF930C
:1008E0008FE091E00E942F0D0E94BE0C6C010E94CF
:1008F000C30CD0E0C0E010E000E00F2EF5E2EF2ED8
:10090000F1E0FF2EF02D05C02196C11598E0D90722
:10091000F1F00E94BE0CFE01FC5E8083208128174E
:1009200099F399279F938F931F922F93DF93CF93E0
:10093000FF92EF920E94190D0F5F1F4F8DB79EB768
:1009400008960FB6F8949EBF0FBE8DBFDDCFC601CF
:100950000E94C30CD0E0C0E0F12CE12C0F2EFEE58C
:10096000CF2EF1E0DF2EF02D05C02196C11598E0C5
:10097000D907F1F00E94BE0CFE01FC5E2081281711
:10098000A1F399279F938F931F922F93DF93CF9378
:10099000DF92CF920E94190D8FEFE81AF80A8DB7F7
:1009A0009EB708960FB6F8949EBF0FBE8DBFDDCFE1
:1009B000FF92EF921F930F938BE991E09F938F9398
:1009C0000E94190D0F900F900F900F900F900F90A5
:1009D000DF91CF911F910F91FF90EF90DF90CF901B
:1009E00008958D9A1BBC1ABC8FB580648FBD8EB5DF
:1009F00089608EBDEBE8F0E0808180688083EAE862
:100A0000F0E080818D608083EDE7F0E0808180619F
:100A1000808380E390E09093870080938600089520
:100A200090918802992309F440C0E0910001F0916F
:100A30000101208130E030938C0220938B022081D1
:100A400030E030938A0220938902208130E0309395
:100A50008E0220938D02208130E03093900220930B
:100A60008F021082882359F0813071F0823089F032
:100A70008330A1F480918F0290919002089580912B
:100A80008B0290918C0208958091890290918A0244
:100A9000089580918D0290918E02089584EF91E0E7
:100AA0000E942F0D90E080E008950895E0910001EC
:100AB000F0910101108298E39A95F1F7E09100011D
:100AC000F09101019081208140813081882369F07B
:100AD000813071F0823079F0833081F084EF91E0E1
:100AE0000E942F0D90E080E00895892F90E00895F6
:100AF000822F90E00895842F90E00895832F90E056
:100B00000895CF92DF92EF92FF920F931F93CF93AE
:100B1000DF936C01C0E2D0E010E000E0F12CE12CAA
:100B200080E00E945605E80EF91E81E00E945605FD
:100B3000080F191F2197A1F7C701992394F19595E3
:100B4000879595958795959587959595879595958D
:100B50008795F60195838483C801992324F195959F
:100B6000879595958795959587959595879595956D
:100B70008795F601978386831182108213821282F1
:100B8000E0910001F09101011082F8E3FA95F1F78C
:100B9000DF91CF911F910F91FF90EF90DF90CF9059
:100BA00008954F96CCCF4F96DACFCF93DF93FC01C9
:100BB00040918B0250918C022091890230918A02DF
:100BC000A481B581A417B5079CF54A1B5B0B64E6AD
:100BD000649FC001659F900D112465EF70E06A1B52
:100BE0007B0B0E944A0CEB016536710514F0C4E6DC
:100BF000D0E046815781421753077CF5241B350B03
:100C000064E6629FC001639F900D112465EF70E060
:100C1000641B750B0E944A0C6536710514F064E67E
:100C200070E0D183C08373836283DF91CF91089595
:100C30004A1B5B0B6CE96403C001659F900D112496
:100C40006BE470E06A1B7B0B0E944A0CEB016C3971
:100C50007F4F7CF6CCE9DFEFCCCF241B350B6CE962
:100C60006203C001639F900D11246BE470E0641B6C
:100C7000750B0E944A0C6C398FEF780794F66CE97B
:100C80007FEFCFCFFC0122813381293231053CF047
:100C9000808191819923D4F028173907DCF4283D0D
:100CA0004FEF34075CF580819181B9013323BCF0AB
:100CB000AC019923CCF064177507DCF489329105F7
:100CC0005CF181E090E0918780870895919581950E
:100CD0009109E2CF82E090E09187808708956627AE
:100CE0007727621B730BE4CF44275527481B590B0A
:100CF000E2CF83E090E091878087089580819181A1
:100D0000893291054CF0BC019923C4F0A901332329
:100D1000D4F046175707ACF2883D4FEF94074CF4D8
:100D2000AC019923ACF0C9019923BCF048175907CD
:100D3000CCF084E090E0918780870895662777273C
:100D4000681B790BE3CF44275527421B530BE1CF98
:100D500044275527481B590BE6CF88279927821B24
:100D6000930BE4CF1186108608951F920F920FB651
:100D70000F9211248F9381E0809388028F910F90BE
:100D80000FBE0F901F90189587B38E6B87BBBE98D0
:100D900088B38E6088BB8DB180658DB9709A0895D7
:100DA000C1980895C3980895C298089588B38E6035
:100DB00088BB08958FB9779BFECF08951FB8779BA6
:100DC000FECF8FB108958FB97F9BFECF8FB108956D
:100DD0000E94D20685E00E94DA0681E00E94DA06CF
:100DE00081E00E94DA060E94D6060895CF93DF9331
:100DF0000E94D006C09884EB0E94DA0680E00E9430
:100E0000DA0680E10E94DA06C09AC0E8D0E08FEFEF
:100E10000E94DA062197D9F70E94D606DF91CF917A
:100E20000895883008F00895C098806B0E94DA0613
:100E3000FACFCF9388235CF0C82FC0988F700E94A0
:100E4000DA068C2F82958F7080610E94DA06CF912E
:100E50000895883090F420E8829FC00111249C01FD
:100E600020583F4FE0910201F0910301E80FF91F74
:100E70001082019682179307A9F70895CF93C0E0D7
:100E80008C2F0E942907CF5FC830D1F7CF910895EA
:100E9000CF93DF930E94D006B89AC0988EEA0E9442
:100EA000DA0681EA0E94DA0688EC0E94DA0684EA11
:100EB0000E94DA0686EA0E94DA068FEA0E94DA06C3
:100EC00080E20E94DA0680E00E94DA0681E20E9457
:100ED000DA0680E00E94DA068FEF0E94DA0682E2EC
:100EE0000E94DA0680E00E94DA0687E00E94DA06B5
:100EF000C09AC0E0D4E080E00E94DA062197D9F7DA
:100F0000C09880E20E94DA0682E00E94DA060E941F
:100F1000D6060E943E07EBE8F0E080818062808385
:100F2000EAE8F0E080818D608083EDE7F0E0808189
:100F30008860808380E390E09093850080938400B4
:100F4000DF91CF910895CF93C82F862F0E94190764
:100F50008C2F0E941107CF910895E82FE052FF0BCC
:100F6000CF01880F991F880F991F8E0F9F1FFC01BB
:100F7000E451FE4F20E8629FB0011124640F711DFF
:100F80008F509E4F9B015491A0910201B09103019B
:100F9000A20FB31F5C9331962F5F3F4FE817F907FD
:100FA00091F76B5F7F4F4091020150910301640FF5
:100FB000751FFB01108208950F931F93CF93DF934A
:100FC000FC01D62FC42F8081882369F08F010F5F29
:100FD0001F4F4C2F6D2F0E94AD07CA5FF801819102
:100FE0008F018111F6CFDF91CF911F910F9108955D
:100FF00090E8899FB0011124CB014496E091020151
:10100000F0910301E80FF91F8FEF80839B012C56AD
:101010003F4FAB0144515F4F91E0E0910201F091ED
:101020000301E20FF31F90832F5F3F4F2417350713
:10103000A1F79B012C563109AB014451510990E8AD
:10104000E0910201F0910301E20FF31F90832F5F03
:101050003F4F24173507A1F765597F4F8091020153
:1010600090910301680F791F8FEFFB018083089532
:1010700020E8829FC00111249C012C5E3F4FE0912B
:101080000201F0910301E20FF31F108220583F4F3D
:10109000AC0144515F4FE0910201F0910301E20F76
:1010A000F31F10822F5F3F4F24173507A1F79C01D4
:1010B0002C563109AC0144515109E0910201F091E3
:1010C0000301E20FF31F10822F5F3F4F24173507F4
:1010D000A1F785599F4F2091020130910301820FA2
:1010E000931FFC01108208950E943E0748E263E0CE
:1010F00085E092E00E94DC0742E365E08FE092E049
:101100000E94DC0783E00E94F80708950F931F9365
:10111000CF93DF93D82FC92F0E943E0748E260E0AB
:1011200085E192E00E94DC0740E366E08CE192E01A
:101130000E94DC0786E00E94F8070D2F1C2FC1E3F8
:10114000D1EDDC0F48E26D2F8C2F0E94AD0742E3FA
:101150006D2FF801819191918F010E94DC07CF5F83
:10116000C43371F7DF91CF911F910F910895FF92D2
:101170000F931F93CF93DF9380919102811106C04B
:10118000DF91CF911F910F91FF9008950E94D0069B
:10119000D0E0C0E0F12C8F2D0E94110780E00E946A
:1011A0001907C09A8E0100581F4FE0910201F0917B
:1011B0000301EC0FFD1F80810E94DA062196C01703
:1011C000D10799F7F39488E0F812E5CF10929102D5
:1011D0000E94D606D5CF1F920F920FB60F92112400
:1011E0008F9381E0809391028F910F900FBE0F90AB
:1011F0001F901895CF93DF93EC01198218820E94FB
:10120000740881E292E09C838B8387E292E09E8364
:101210008D838DE292E098878F8383E08A83DF91CC
:10122000CF910895089522E030E0FC0131832083BE
:1012300026E0228303960E9486080895CF93DF93C9
:10124000EC01198218820E94740883E08A83DF917E
:10125000CF910895CF930E94D206C09883E00E9458
:10126000DA0688E38A95F1F70E94DE0683E08A9524
:10127000F1F70E94DE0683E08A95F1F70E94DE0610
:10128000C82F0E94D6061F92CF9384E392E09F93CB
:101290008F930E94190D0F900F900F900F908C2F2D
:1012A000CF910895CF93DF93FC0120813181232BCF
:1012B000B1F4EC01FB01808591858330910561F0EB
:1012C000029769F48A81853051F40E94380883E0DE
:1012D0008A830E94F80703C08A81833019F0DF9166
:1012E000CF9108950E94380885E08A830E94F8070C
:1012F000F6CF0F931F93CF93DF93EC018B0180E028
:101300000E941005C8010E94D505C8010E9442062E
:10131000B801CE010E94520988819981892BC1F4BC
:101320008A81833041F08A81853071F0DF91CF91DD
:101330001F910F9108950E942A098111F7CF88818A
:101340009981892B81F304C00E942A09811112C05E
:1013500088819981029751F78A81863039F70E94F6
:101360002A09882319F3198218820E94740883E0DD
:101370008A83DCCFCE010E941309D8CFCF93C82F28
:101380000E94D40683E00E94DA068C2F0E94DA06BF
:101390000E94DE06C82F0E94D6068C2FCF9108959A
:1013A000CF93DF93D82FC62F0E94D40682E00E94ED
:1013B000DA068D2F0E94DA068C2F0E94DA060E9430
:1013C000D606DF91CF910895CF930E94D40680EA8C
:1013D0000E94DA060E94DE060E94DE06C82F0E94E6
:1013E000D6068C2FCF910895CF93DF93EC010E9406
:1013F000D406209769F0C130D10571F0C230D10513
:1014000079F0239789F00E94D606DF91CF91089555
:1014100087E80E94DA06F7CF81E80E94DA06F3CF68
:1014200082E80E94DA06EFCF84E80E94DA06EBCF6A
:101430001F93CF93DF93182FD62FC42F0E94D4066B
:1014400085E00E94DA06812F0E94DA068D2F0E9425
:10145000DA068C2F0E94DA060E94D606DF91CF9121
:101460001F9108950E94D40680EC0E94DA060E9423
:10147000D60608950E94320A8EE00E94BE09807E40
:10148000803849F084E492E00E942F0D40E860EE3D
:101490008FE00E94180A80E008950E943A0A60E0F6
:1014A00080E00E94D00960E081E00E94D00960E005
:1014B00084E00E94D00960E085E00E94D00960E0ED
:1014C00080E20E94D00960E681E20E94D00940E0FB
:1014D00060EC8AE20E94180A40E06FE38AE20E9410
:1014E000180A41E06FEF89E20E94180A40E060E0CC
:1014F00088E20E94180A41E060E08BE20E94180A2C
:1015000041E060E08CE20E94180A40E460EE8FE067
:101510000E94180A0895AF92BF92CF92DF92FF9275
:101520000F931F93CF93DF93EC01188109811295DC
:10153000110F107E8B859C85009709F088C00E9452
:10154000E4098475E1F3602F81E30E94D009612FE3
:1015500082E30E94D009602F81E40E94D009612FAC
:1015600082E40E94D009602F81E50E94D009612F9A
:1015700082E50E94D0096A8585E30E94D0096A85C8
:1015800085E40E94D0096A8585E50E94D0098A8594
:10159000882309F449C06E0182E0C80ED11C5601AF
:1015A0000F2EF6E3FF2EF02D10E000E0F501619123
:1015B0005F018F2D0E94D0090F5F1F4F8A85F39422
:1015C0008017110609F094F7882371F10F2EF6E4C5
:1015D000FF2EF02D10E000E0F60161916F018F2DDC
:1015E0000E94D0090F5F1F4FF3948A858017110660
:1015F00009F094F78823C1F06E01F2E0CF0ED11C00
:101600000F2EF6E5FF2EF02D10E000E0F6016191BF
:101610006F018F2D0E94D0090F5F1F4FF3948A85B1
:101620008017110609F094F740E06CE18BE20E940C
:10163000180A8B859C850E94F409DF91CF911F9138
:101640000F91FF90DF90CF90BF90AF9008958130C1
:101650009105D9F18230910509F46CC0039769F7BF
:101660000E94E40986FFFCCF602F81E50E94D0092B
:10167000612F82E50E94D0096A8585E50E94D00924
:101680008A858823C1F06E01F2E0CF0ED11C0F2EA7
:10169000F6E5FF2EF02D10E000E0F60161916F01FC
:1016A0008F2D0E94D0090F5F1F4FF3948A858017FA
:1016B000110609F094F740E060E18BE20E94180AFD
:1016C0008B859C850E94F409B8CF0E94E40982FFB3
:1016D000FCCF602F81E30E94D009612F82E30E943A
:1016E000D0096A8585E30E94D0098A858823C1F0E4
:1016F0006E01F2E0CF0ED11C0F2EF6E3FF2EF02D7F
:1017000010E000E0F60161916F018F2D0E94D00979
:101710000F5F1F4FF3948A858017110609F094F725
:1017200040E064E08BE20E94180A8B859C850E9451
:10173000F40983CF0E94E40984FFFCCF602F81E489
:101740000E94D009612F82E40E94D0096A8585E455
:101750000E94D0098A858823C1F06E01F2E0CF0E85
:10176000D11C0F2EF6E4FF2EF02D10E000E0F60164
:1017700061916F018F2D0E94D0090F5F1F4FF3946D
:101780008A858017110609F094F740E068E08BE243
:101790000E94180A8B859C850E94F4094ECFCF9237
:1017A000DF92EF92FF921F93CF93DF93EC01909122
:1017B0000401911108C0DF91CF911F91FF90EF902C
:1017C000DF90CF90089581E60E94BE091882898338
:1017D00082E60E94BE0928813981282B398328831B
:1017E00085E60E94BE098A878823C9F07E0182E0CF
:1017F000E80EF11C16E68EEF9FEF6C01CC1ADD0AA5
:10180000812F0E94BE09F70181937F011F5F2A8506
:10181000C6018E0F9F1F2817190609F08CF78A81C1
:101820001F928F9386E792E09F938F930E94190DEA
:1018300081E0809304010F900F900F900F90BBCF29
:101840001F920F920FB60F9211242F933F934F9335
:101850005F936F937F938F939F93AF93BF93EF9318
:10186000FF9381E08093040141E060E08CE20E94FC
:10187000180AFF91EF91BF91AF919F918F917F9146
:101880006F915F914F913F912F910F900FBE0F90ED
:101890001F90189597FB072E16F4009407D077FD3C
:1018A00009D00E945E0C07FC05D03EF4909581950E
:1018B0009F4F0895709561957F4F0895AA1BBB1B9C
:1018C00051E107C0AA1FBB1FA617B70710F0A61B40
:1018D000B70B881F991F5A95A9F780959095BC0161
:1018E000CD0108958F929F92AF92BF92CF92DF92D7
:1018F000EF92FF92CF93DF93EC01688179818A8127
:101900009B81611571058105910521F464E279EDF2
:101910008BE597E02DE133EF41E050E00E9420118C
:1019200049015A019B01AC01A7EAB1E40E943F11B1
:101930006B017C01ACEEB4EFA50194010E944D1146
:10194000DC01CB018C0D9D1DAE1DBF1DB7FF03C07B
:101950000197A109B04888839983AA83BB839F77A5
:10196000DF91CF91FF90EF90DF90CF90BF90AF903D
:101970009F908F9008950E94720C089585E091E0E9
:101980000E94720C0895B0E0A0E08093050190934E
:101990000601A0930701B093080108950F931F93C8
:1019A000CF93DF93009759F46115710541F4F0E08E
:1019B000E0E0CF01DF91CF911F910F9108958B014E
:1019C000EC016EE070E081E090E00E94340FFC01D9
:1019D000892B69F380E883830115110571F0138762
:1019E000028781E883838091120390911303892BEE
:1019F00021F4F0931303E09312032097D1F2D187DF
:101A0000C087838182608383809114039091150342
:101A1000892B79F6F0931503E09314038091160354
:101A200090911703892B29F6F0931703E09316037F
:101A3000C0CFB0E0A0E0EFE1FDE00C946211AE0198
:101A40004B5F5F4FFA0161917191AF018091140377
:101A5000909115030E945A0DE2E00C947E110F93B1
:101A60001F93CF93DF93E0911403F091150323812B
:101A7000EC0110E000E021FD08C00FEF1FEF14C0E3
:101A80000995892B11F00FEF1FEF899160911403D5
:101A900070911503DB011896ED91FC918111F0CF47
:101AA0008AE00995892B49F7C801DF91CF911F91F1
:101AB0000F910895ABE0B0E0E0E6FDE00C94521128
:101AC0007C013B018A01FC0117821682838181FF20
:101AD000C8C1CE0101965C01F7019381F30193FD2A
:101AE000859193FF81913F01882309F453C1853289
:101AF00039F493FD859193FF81913F01853229F45B
:101B0000B70190E00E949210E7CF912C212C312C4C
:101B1000FFE1F31538F08B3211F190F4803209F1C6
:101B2000833229F137FC3CC020ED280F2A3050F5D4
:101B300036FE20C08AE0989E200D1124922E06C009
:101B40008D3291F0803371F7689430F8F30193FD92
:101B5000859193FF81913F018111DACF21C0689473
:101B600031F8689432F8F2CF689433F8EFCF689484
:101B700034F8ECCFEAE02E9E200D1124222E68943A
:101B800035F8E4CF8E3229F436FC04C1689436F877
:101B9000DDCF8C3619F4689437F8D8CF8836B1F297
:101BA000982F9F7D95549330E0F08336A1F18337D1
:101BB000C1F1833509F063C02801F2E04F0E511CDA
:101BC000F801C080D180692D70E036FC02C06FEF53
:101BD0007FEFC6010E9475104C01689437F88201AE
:101BE0000AC00C5F1F4FFFE3F98388248394912C74
:101BF0006501E89437F833FE2DC0522C811491040E
:101C000071F5552009F468CFB70180E290E00E9499
:101C100092105A94F6CFF801808189830E5F1F4F8E
:101C2000E4CF2801F2E04F0E511CF801C080D180B2
:101C3000692D70E036FC02C06FEF7FEFC6010E9495
:101C400087104C018201D5CFB70180E290E00E945D
:101C500092102A942814190409F0B0F7CECFF60197
:101C600037FC859137FE81916F01B70190E00E94AA
:101C7000921051105A94F1E08F1A9108BFCF843618
:101C800019F0893609F077C0F80137FE6BC0608122
:101C90007181828193810C5F1F4FF32DFF763F2E60
:101CA00097FF09C090958095709561957F4F8F4FF4
:101CB0009F4F689437F82AE030E0A5010E94C210D7
:101CC000C82ECA188C2C432C36FE0CC0E89440F861
:101CD000C91440F434FE05C032FC03C0F32DFE7E6F
:101CE0004F2E892C44FE95C0FE01EC0DF11D808124
:101CF000803309F087C0242D297E422E842D8870E0
:101D0000582E43FC95C040FE8FC09C2C821418F4C2
:101D10002C0C922C981844FE91C0B70180E390E0FF
:101D20000E94921042FE09C088E790E041FE02C086
:101D300088E590E0B7010E949210C91408F48AC0A7
:101D4000CA94D12C9FEFC91AD90ACA0CDB1CF60120
:101D500082916F01B70190E00E949210AC14BD0413
:101D6000B1F74FCF60817181072E000C880B990B62
:101D70000E5F1F4F92CFD32CE894D4F82AE030E0C6
:101D8000853739F1232D297FD22E8F3601F148F482
:101D90008835A9F0F701868197812B96E2E10C94B2
:101DA0006E11803749F08837A9F7D4FE02C06894D5
:101DB000D2F820E130E00DC06894D4F8F6CF34FEBC
:101DC00003C0822F8660D82E20E132E002C028E0D6
:101DD00030E0F801D7FE0FC060817181828193816C
:101DE0000C5F1F4FA5010E94C210C82ECA183D2CBF
:101DF000E89437F867CF6081718190E080E00E5FF2
:101E00001F4FF0CF42FC02C0839478CF8394839419
:101E100075CF842D867809F471CFF6CFB70180E2B3
:101E200090E00E94921083948214C0F3512C73CFDF
:101E3000522C5818821408F46ECFF8CF842D86786F
:101E400009F47BCF8BE241FE80E247FC8DE2B701D3
:101E500090E071CFB70180E390E00E9492109A94D5
:101E60006CCF8FEF9FEF99CF0F931F93CF93DF939B
:101E7000869F8001879F100D969F100D1124C80129
:101E80000E94500FEC01009729F0A80170E060E07B
:101E90000E948010CE01DF91CF911F910F91089584
:101EA0000F931F93CF93DF938230910510F482E05C
:101EB00090E0E0911A03F0911B0330E020E0B0E0E5
:101EC000A0E0309799F42115310509F44AC0281B88
:101ED000390B24303105D8F58A819B816115710554
:101EE00089F1FB0193838283FE0111C040815181FE
:101EF0000281138148175907E0F04817590799F4F0
:101F0000109761F012960C93129713961C933296C9
:101F1000CF01DF91CF911F910F91089500931A0384
:101F200010931B03F4CF2115310551F042175307CD
:101F300038F0A901DB019A01BD01DF01F801C1CF31
:101F4000EF01F9CF90931B0380931A03CDCFFE01CD
:101F5000E20FF31F81939193225031093983288333
:101F6000D7CF2091180330911903232B41F42091EE
:101F70000B0130910C013093190320931803209129
:101F8000090130910A012115310541F42DB73EB701
:101F900040910D0150910E01241B350BE091180367
:101FA000F0911903E217F307A0F42E1B3F0B28173B
:101FB000390778F0AC014E5F5F4F2417350748F0C2
:101FC0004E0F5F1F50931903409318038193919311
:101FD0009FCFF0E0E0E09CCFCF93DF930097E9F054
:101FE000FC01329713821282A0911A03B0911B0355
:101FF000ED0130E020E01097A1F420813181820FC3
:10200000931F20911803309119032817390709F0FD
:1020100061C0F0931903E0931803DF91CF91089505
:10202000EA01CE17DF07E8F54A815B819E01411581
:102030005105B1F7E901FB83EA8349915991C40F36
:10204000D51FEC17FD0761F4808191810296840F02
:10205000951FE90199838883828193819B838A8379
:10206000F0E0E0E012968D919C9113970097B9F5FE
:102070002D913C911197CD010296820F931F2091D3
:102080001803309119032817390739F6309751F59D
:1020900010921B0310921A03B0931903A093180314
:1020A000BCCFD383C28340815181840F951FC81751
:1020B000D90761F44E5F5F4F88819981480F591F9E
:1020C000518340838A819B819383828321153105CB
:1020D00009F0B0CFF0931B03E0931A039ECFFD01EC
:1020E000DC01C0CF13821282D7CFFC010590615072
:1020F00070400110D8F7809590958E0F9F1F08951E
:10210000DC0101C06D9341505040E0F70895FC019F
:102110006150704001900110D8F7809590958E0F16
:102120009F1F08950F931F93CF93DF93182F092FAD
:10213000EB018B8181FD09C01FEF0FEF812F902FE5
:10214000DF91CF911F910F91089582FF14C02E81CE
:102150003F818C819D81281739073CF4E881F98102
:10216000CF0101969983888310838E819F81019688
:102170009F838E83E3CFE885F985812F0995892B8D
:10218000A1F3DACFFA01AA27283051F1203181F1E9
:10219000E8946F936E7F6E5F7F4F8F4F9F4FAF4F6F
:1021A000B1E03ED0B4E03CD0670F781F891F9A1F82
:1021B000A11D680F791F8A1F911DA11D6A0F711D36
:1021C000811D911DA11D20D009F468943F912AE042
:1021D000269F11243019305D3193DEF6CF0108952A
:1021E000462F4770405D4193B3E00FD0C9F7F6CF5B
:1021F000462F4F70405D4A3318F0495D31FD405223
:10220000419302D0A9F7EACFB4E0A69597958795B8
:1022100077956795BA95C9F7009761057105089597
:102220009B01AC010A2E0694579547953795279543
:10223000BA95C9F7620F731F841F951FA01D0895DB
:10224000052E97FB1EF400940E94371157FD07D00E
:102250000E94891107FC03D04EF40C94371150955D
:102260004095309521953F4F4F4F5F4F0895909582
:102270008095709561957F4F8F4F9F4F08950E9475
:10228000AB11A59F900DB49F900DA49F800D911D43
:1022900011240895B7FF0C943F110E943F11821B37
:1022A000930B08952F923F924F925F926F927F927D
:1022B0008F929F92AF92BF92CF92DF92EF92FF9256
:1022C0000F931F93CF93DF93CDB7DEB7CA1BDB0B02
:1022D0000FB6F894DEBF0FBECDBF09942A883988A7
:1022E00048885F846E847D848C849B84AA84B984AE
:1022F000C884DF80EE80FD800C811B81AA81B981BA
:10230000CE0FD11D0FB6F894DEBF0FBECDBFED01CD
:102310000895A1E21A2EAA1BBB1BFD010DC0AA1F26
:10232000BB1FEE1FFF1FA217B307E407F50720F03E
:10233000A21BB30BE40BF50B661F771F881F991FB9
:102340001A9469F760957095809590959B01AC0102
:10235000BD01CF010895A29FB001B39FC001A39F0B
:10236000700D811D1124911DB29F700D811D1124CE
:08237000911D0895F894FFCFC0
:1023780034120016010100000000001C0320005365
:1023880074617274696E67205352414D207465738D
:10239800742E2E2E005772697465207068617365FB
:1023A800206572726F723A206578745F72616D5B36
:1023B8002534645D203D2025303258202873686F0D
:1023C800756C642062652025303258290A005265F0
:1023D8007472696576616C207068617365206572D6
:1023E800726F723A206578745F72616D5B25346430
:1023F8005D203D2025303258202873686F756C6445
:102408002062652025303258290A005352414D2058
:102418007465737420636F6D706C65746564207780
:10242800697468200A253464206572726F7273209B
:10243800696E2077726974652070686173652061C0
:102448006E64200A253464206572726F7273206985
:102458006E2072657472696576616C20706861734C
:10246800650A0A00496E76616C6964206368616E6A
:102478006E656C2E00506C61792067616D65005344
:10248800636F72650053636F726573004261636BBB
:102498000042C3A5726400416D756E6400526567A1
:1024A800696E6500497320707265737365643A20BC
:1024B80025750A004D435032353135206973204E59
:1024C8004F5420696E20636F6E6669677572617418
:1024D800696F6E206D6F6465206166746572207225
:1024E80065736574210052656369657665643A2091
:0424F80025750A003C
:00000001FF
