:100000000C9460030C947D030C947D030C947D038D
:100010000C947D030C947D030C947D030C947D0360
:100020000C947D030C947D030C947D030C947D0350
:100030000C947D030C947D030C947D030C947D0340
:100040000C9444060C947D030C947D030C943104B1
:100050000C947D030C940A040C947D030C947D0392
:100060000C947D030C947D030C947D030C947D0310
:1000700000000000005C00000C000C007C287C28C4
:1000800058DC68002410480028542840000C000068
:10009000007884008478000054385400107C1000EC
:1000A00080400000101010000040000060100C00A4
:1000B00038543800487C40004864580044542C00B0
:1000C0001C107C005C5424003854240064140C0080
:1000D00068542C0048543800004800008048000054
:1000E0001028440028282800442810000454080040
:1000F00038445C00781478007C5428003844280088
:100100007C4438007C5444007C140400384474005F
:100110007C107C00447C440020403C007C106C003F
:100120007C4040007C187C0078103C00384438004B
:100130007C1408003844B8007C146800485424003B
:10014000047C04007C407C003C603C007C307C00F3
:100150006C106C000C700C0064544C00007C44006B
:100160000C106000447C00000804080080808000BF
:1001700000040800304878007C48300030484800CF
:1001800030487C00306850001078140090A8780047
:100190007C08700050744000808074007C106800FF
:1001A000447C4000781078007808700030483000B7
:1001B000F82810003048F80078100800505828003F
:1001C000083C4800384078003840380078207800F3
:1001D0004830480098A0780048685800107884009B
:1001E000007C00008478100008040804000000006F
:1001F0000000005F00000007000700147F147F1458
:10020000242A7F2A1223130864623649552250009B
:1002100005030000001C2241000041221C00082AA6
:100220001C2A0808083E080800503000000808088A
:100230000808006060000020100804023E51494593
:100240003E00427F400042615149462141454B31C9
:100250001814127F1027454545393C4A4949300159
:10026000710905033649494936064949291E0036B0
:100270003600000056360000000814224114141401
:10028000141441221408000201510906324979412F
:100290003E7E1111117E7F494949363E414141223E
:1002A0007F4141221C7F494949417F090901013EA3
:1002B000414151327F0808087F00417F41002040C2
:1002C000413F017F081422417F404040407F0204AB
:1002D000027F7F0408107F3E4141413E7F090909AA
:1002E000063E4151215E7F09192946464949493157
:1002F00001017F01013F4040403F1F2040201F7F00
:100300002018207F631408146303047804036151E8
:1003100049454300007F4141020408102041417FCC
:100320000000040201020440404040400001020479
:100330000020545454787F4844443838444444207E
:10034000384444487F3854545418087E0901020840
:100350001454543C7F0804047800447D400020403D
:10036000443D00007F10284400417F40007C041879
:1003700004787C0804047838444444387C14141409
:1003800008081414187C7C080404084854545420A9
:10039000043F4440203C4040207C1C2040201C3C2A
:1003A0004030403C44281028440C5050503C446499
:1003B000544C44000836410000007F0000004136E4
:1003C000080002010302010000000000000000001C
:1003D000065F5F0600000000070700070700001423
:1003E0007F7F147F7F1400242E6B6B3A120000462F
:1003F0006630180C666200307A4F5D377A48000428
:1004000007030000000000001C3E634100000000E4
:1004100041633E1C000000082A3E1C1C3E2A0808BE
:10042000083E3E0808000000A0E060000000000850
:100430000808080808000000006060000000006074
:1004400030180C060301003E7F594D7F3E000042EC
:10045000427F7F40400000627359496F660000226E
:100460006349497F360000181C16137F7F10002750
:100470006745457D3900003C7E4B497930000003DB
:100480006371190F070000367F49497F3600000667
:100490004F49693F1E000000006C6C000000000026
:1004A000A0EC6C00000000081C3663410000001442
:1004B00014141414140000004163361C08000002D8
:1004C0000351590F0600003E7F415D5D1F1E007CF9
:1004D0007E13137E7C0000417F7F49497F36001CDC
:1004E0003E634141632200417F7F41637F1C0041A5
:1004F0007F7F495D416300417F7F491D0103001CEF
:100500003E6341517372007F7F08087F7F000000C7
:10051000417F7F41000000307040417F3F0100413A
:100520007F7F081C776300417F7F41406070007FC0
:100530007F060C067F7F007F7F060C187F7F001CE4
:100540003E6341633E1C00417F7F49090F06001E48
:100550003F21717F5E0000417F7F19396F46002681
:10056000674D597B32000003417F7F410300007FCC
:100570007F40407F7F00001F3F60603F1F00007F83
:100580007F3018307F7F0063771C081C776300077B
:100590004F78784F0700006773594D47637100002B
:1005A0007F7F41410000000103060C18306000000D
:1005B00041417F7F000000080C0603060C08008004
:1005C000808080808080800000030704000000207D
:1005D0007454543C784000413F7F44447C38003898
:1005E0007C44446C280000307848493F7F40003804
:1005F0007C54545C180000487E7F49030200009838
:10060000BCA4A4F87C0400417F7F08047C7800002F
:10061000447D7D4000000040C484FD7D0000004119
:100620007F7F10386C440000417F7F400000007CD9
:100630007C0C180C7C78007C7C04047C78000038EE
:100640007C44447C38000084FCF8A4243C18001846
:100650003C24A4F8FC8400447C78441C1800004826
:100660005C54547424000000043E7F442400003C89
:100670007C40403C7C40001C3C60603C1C00003CDA
:100680007C6030607C3C00446C3810386C44009CCA
:10069000BCA0A0FC7C00004C64745C4C64000008AE
:1006A000083E7741410000000000777700000041DC
:1006B00041773E0808000002030103020301000025
:1006C00011241FBECFEFD4E0DEBFCDBF12E0A0E00B
:1006D000B1E0EEEBF9E102C005900D92AE32B10748
:1006E000D9F722E0AEE2B2E001C01D92A53CB2070C
:1006F000E1F70E947F030C94DD0C0C940000CF9373
:10070000DF93CDB7DEB72A970FB6F894DEBF0FBEE2
:10071000CDBF8FE190E00E94A8030E9403040E94D5
:100720004D040E94DB040E9453060E94C006CE01C5
:1007300001960E945F0578940E94800783E00E94E2
:100740004A0785E00E944A0780E00E94ED04FCCF42
:1007500090BD89B98AB1886B8AB9089520912F021A
:1007600030E02F5F3F4F2F73307890912E02921719
:10077000E1F3E0912F02F0E0E558FD4F80832093F4
:100780002F0290E080E00895CF93C82F8A3039F08F
:100790008C2F0E94AE0390E080E0CF9108958DE011
:1007A0000E94C403F5CF90913102809130029817D6
:1007B000D1F3E0913102F0E0E55CFD4F80812091C2
:1007C000310230E0909130029217130699F094F0C4
:1007D000A9014F5F5F4FFA01E55CFD4F9081255CF9
:1007E0003D4FF9019083909130029A0194171506BC
:1007F00009F074F79091300291509093300208956F
:100800000E94D303089560E074E084EC93E00E94BA
:10081000F10708951F920F920FB60F9211248F9334
:100820009F93EF93FF9390912F0280912E02981740
:1008300079F0E0912E02F0E0E558FD4F80818CB90F
:1008400080912E0290E001968F73907880932E0213
:10085000FF91EF919F918F910F900FBE0F901F907E
:1008600018951F920F920FB60F9211248F93EF934A
:10087000FF93E0913002F0E08CB1E55CFD4F8083A6
:10088000809130028F5F80933002FF91EF918F91C2
:100890000F900FBE0F901F90189580E885BF80E2E3
:1008A00080BF0895CF92DF92EF92FF920F931F9334
:1008B000CF93DF938CE091E00E9452080E94E10701
:1008C0006C010E94E607D0E0C0E010E000E00F2ECF
:1008D000F2E2EF2EF1E0FF2EF02D05C02196C115BA
:1008E00098E0D907F1F00E94E107FE01FC5E8083E9
:1008F0002081281799F399279F938F931F922F9305
:10090000DF93CF93FF92EF920E943C080F5F1F4F3F
:100910008DB79EB708960FB6F8949EBF0FBE8DBFD9
:10092000DDCFC6010E94E607D0E0C0E0F12CE12C4B
:100930000F2EFBE5CF2EF1E0DF2EF02D05C0219626
:10094000C11598E0D907F1F00E94E107FE01FC5EB5
:1009500020812817A1F399279F938F931F922F939C
:10096000DF93CF93DF92CF920E943C088FEFE81A7B
:10097000F80A8DB79EB708960FB6F8949EBF0FBEC3
:100980008DBFDDCFFF92EF921F930F9388E991E027
:100990009F938F930E943C080F900F900F900F90A1
:1009A0000F900F90DF91CF911F910F91FF90EF90DB
:1009B000DF90CF9008958D9A1BBC1ABC8FB58064D0
:1009C0008FBD8EB589608EBD83B78D6083BF89B7BB
:1009D000816089BF80E381BF08959091320299239D
:1009E00009F440C0E0910001F0910101208130E064
:1009F0003093360220933502208130E03093340268
:100A000020933302208130E0309338022093370264
:100A1000208130E030933A022093390210828823FB
:100A200059F0813071F0823089F08330A1F48091E7
:100A3000390290913A0208958091350290913602E0
:100A40000895809133029091340208958091370285
:100A500090913802089581EF91E00E94520890E051
:100A600080E008950895E0910001F0910101108265
:100A70009DE09A95F1F70000E0910001F0910101ED
:100A80009081208140813081882369F0813071F02C
:100A9000823079F0833081F081EF91E00E9452083A
:100AA00090E080E00895892F90E00895822F90E0F3
:100AB0000895842F90E00895832F90E00895CF92B9
:100AC000DF92EF92FF920F931F93CF93DF936C010E
:100AD000C0E2D0E010E000E0F12CE12C80E00E94C8
:100AE0003305E80EF91E81E00E943305080F191F37
:100AF0002197A1F7C70199239CF195958795959525
:100B00008795959587959595879595958795F60100
:100B100095838483C80199232CF1959587959595A4
:100B20008795959587959595879595958795F601E0
:100B3000978386831182108213821282E0910001D2
:100B4000F09101011082FDE0FA95F1F70000DF91CC
:100B5000CF911F910F91FF90EF90DF90CF9008956C
:100B60004F96CBCF4F96D9CF8091350290913602D8
:100B700080913302909134020895FC0122813381E7
:100B8000253131053CF0808191819923F4F02817BB
:100B90003907FCF42C3E8FEF3807BCF540815181BA
:100BA000B9013323FCF0CA0155230CF1681779070A
:100BB0001CF545315105BCF181E090E091878087BB
:100BC0008AE092E00E9452080895919581959109DA
:100BD000DECF82E090E09187808782E092E00E9401
:100BE0005208089566277727621B730BDCCF88278E
:100BF0009927841B950BDACF83E090E0918780875B
:100C000085E092E00E94520808954081518145316B
:100C100051054CF0BA015523E4F0C9013323F4F037
:100C2000861797074CF24C3E8FEF58074CF4BA01E9
:100C30005523CCF0C9019923DCF068177907ECF053
:100C400084E090E09187808785E192E00E945208DD
:100C5000089566277727641B750BDFCF88279927B0
:100C6000821B930BDDCF66277727641B750BE2CFC2
:100C700088279927821B930BE0CF1186108680E18D
:100C800092E00E94520808951F920F920FB60F92A1
:100C900011248F9381E0809332028F910F900FBEC9
:100CA0000F901F90189587B3826B87BBBE9888B34F
:100CB000826188BB8DB180658DB9709A0895C198A5
:100CC0000895C498089588B3826188BB08958FB948
:100CD000779BFECF08951FB8779BFECF8FB1089505
:100CE0000E94610685E00E94670681E00E94670617
:100CF00081E00E9467060E9463060895CF93DF9308
:100D00000E945F06C09884EB0E94670680E00E9404
:100D1000670680E10E946706C09AC0E8D0E08FEFC6
:100D20000E9467062197D9F70E946306DF91CF9151
:100D30000895CF93DF93C09880E20E94670680E019
:100D40000E94670681E20E94670680E00E946706B3
:100D50008FEF0E94670682E20E94670680E00E9491
:100D6000670687E00E946706C09AC0E0D4E080E092
:100D70000E9467062197D9F7C098DF91CF91089517
:100D80000E945F06B89AC0988EEA0E94670681EAC0
:100D90000E94670688EC0E94670684EA0E94670644
:100DA00086EA0E9467068FEA0E9467060E949906FB
:100DB00080E20E94670682E00E9467060E94630646
:100DC0000895883008F00895C098806B0E946706E7
:100DD000FACFCF9388235CF0C82FC0988F700E9401
:100DE00067068C2F82958F7080610E946706CF9175
:100DF0000895CF93DF93883018F0DF91CF91089555
:100E00000E94E10680E00E94E906C09AC0E8D0E0B6
:100E100080E00E9467062197D9F7EFCFCF93C82FC4
:100E2000862F0E94E9068C2F0E94E106CF9108953B
:100E30000F931F93CF93DF93C09A8052990B8C012D
:100E4000000F111F000F111F080F191FE801C451D7
:100E5000DE4F0F501E4FFE0184910E9467062196BF
:100E6000C017D107C1F780E00E946706DF91CF91DC
:100E70001F910F910895CF93DF93EC018881882310
:100E800031F021960E94180789918111FBCFDF91E3
:100E9000CF9108951F93CF93DF93182F0E945F0681
:100EA00064E1812F0E940E07C09A8FEF0E946706AF
:100EB00064E181E0810F0E940E07C09AC8E5D0E08E
:100EC00081E00E9467062197D9F764E18FEF810FD7
:100ED0000E940E07C09AC8E5D0E080E80E9467062D
:100EE0002197D9F76BE6812F0E940E07C09A8FEFEA
:100EF0000E9467060E946306DF91CF911F910895BB
:100F00000E945F0668E283E00E940E078DE192E096
:100F10000E943B0762E385E00E940E0787E292E0B1
:100F20000E943B070E94630608958F929F92AF92A2
:100F3000BF92CF92DF92EF92FF92CF93DF93EC01BB
:100F4000688179818A819B8161157105810591058F
:100F500021F464E279ED8BE597E02DE133EF41E098
:100F600050E00E94430C49015A019B01AC01A7EAE1
:100F7000B1E40E94620C6B017C01ACEEB4EFA50100
:100F800094010E94700CDC01CB018C0D9D1DAE1DE7
:100F9000BF1DB7FF03C00197A109B048888399839B
:100FA000AA83BB839F77DF91CF91FF90EF90DF9073
:100FB000CF90BF90AF909F908F9008950E9495071B
:100FC000089582E091E00E9495070895B0E0A0E0C6
:100FD0008093020190930301A0930401B093050153
:100FE00008950F931F93CF93DF93009759F46115E2
:100FF000710541F4F0E0E0E0CF01DF91CF911F9166
:101000000F9108958B01EC016EE070E081E090E0BB
:101010000E94570AFC01892B69F380E8838301153C
:10102000110571F01387028781E883838091BB02E9
:101030009091BC02892B21F4F093BC02E093BB0297
:101040002097D1F2D187C08783818260838380918A
:10105000BD029091BE02892B79F6F093BE02E09317
:10106000BD028091BF029091C002892B29F6F093B6
:10107000C002E093BF02C0CFB0E0A0E0E2E4F8E03D
:101080000C94850CAE014B5F5F4FFA016191719139
:10109000AF018091BD029091BE020E947D08E2E006
:1010A0000C94A10C0F931F93CF93DF93E091BD029B
:1010B000F091BE022381EC0110E000E021FD08C0A8
:1010C0000FEF1FEF14C00995892B11F00FEF1FEFE1
:1010D00089916091BD027091BE02DB011896ED917D
:1010E000FC918111F0CF8AE00995892B49F7C8015D
:1010F000DF91CF911F910F910895ABE0B0E0E3E84D
:10110000F8E00C94750C7C013B018A01FC0117820C
:101110001682838181FFC8C1CE0101965C01F7016F
:101120009381F30193FD859193FF81913F01882382
:1011300009F453C1853239F493FD859193FF819170
:101140003F01853229F4B70190E00E94B50BE7CF4B
:10115000912C212C312CFFE1F31538F08B3211F159
:1011600090F4803209F1833229F137FC3CC020ED44
:10117000280F2A3050F536FE20C08AE0989E200DB8
:101180001124922E06C08D3291F0803371F768944D
:1011900030F8F30193FD859193FF81913F01811117
:1011A000DACF21C0689431F8689432F8F2CF6894AD
:1011B00033F8EFCF689434F8ECCFEAE02E9E200DA0
:1011C0001124222E689435F8E4CF8E3229F436FCAF
:1011D00004C1689436F8DDCF8C3619F4689437F87A
:1011E000D8CF8836B1F2982F9F7D95549330E0F098
:1011F0008336A1F18337C1F1833509F063C028013B
:10120000F2E04F0E511CF801C080D180692D70E0D2
:1012100036FC02C06FEF7FEFC6010E94980B4C01B5
:10122000689437F882010AC00C5F1F4FFFE3F9830F
:1012300088248394912C6501E89437F833FE2DC0FF
:10124000522C8114910471F5552009F468CFB7012F
:1012500080E290E00E94B50B5A94F6CFF8018081AD
:1012600089830E5F1F4FE4CF2801F2E04F0E511C1F
:10127000F801C080D180692D70E036FC02C06FEFAC
:101280007FEFC6010E94AA0B4C018201D5CFB701A6
:1012900080E290E00E94B50B2A942814190409F00A
:1012A000B0F7CECFF60137FC859137FE81916F0103
:1012B000B70190E00E94B50B51105A94F1E08F1ADB
:1012C0009108BFCF843619F0893609F077C0F8014C
:1012D00037FE6BC060817181828193810C5F1F4FEB
:1012E000F32DFF763F2E97FF09C09095809570955E
:1012F00061957F4F8F4F9F4F689437F82AE030E019
:10130000A5010E94E50BC82ECA188C2C432C36FE72
:101310000CC0E89440F8C91440F434FE05C032FC17
:1013200003C0F32DFE7E4F2E892C44FE95C0FE0196
:10133000EC0DF11D8081803309F087C0242D297EBA
:10134000422E842D8870582E43FC95C040FE8FC0DD
:101350009C2C821418F42C0C922C981844FE91C0EA
:10136000B70180E390E00E94B50B42FE09C088E718
:1013700090E041FE02C088E590E0B7010E94B50B05
:10138000C91408F48AC0CA94D12C9FEFC91AD90A8B
:10139000CA0CDB1CF60182916F01B70190E00E943C
:1013A000B50BAC14BD04B1F74FCF60817181072E2E
:1013B000000C880B990B0E5F1F4F92CFD32CE89433
:1013C000D4F82AE030E0853739F1232D297FD22E59
:1013D0008F3601F148F48835A9F0F70186819781AD
:1013E0002B96E2E10C94910C803749F08837A9F7ED
:1013F000D4FE02C06894D2F820E130E00DC06894B9
:10140000D4F8F6CF34FE03C0822F8660D82E20E1B8
:1014100032E002C028E030E0F801D7FE0FC0608162
:101420007181828193810C5F1F4FA5010E94E50BA2
:10143000C82ECA183D2CE89437F867CF60817181B7
:1014400090E080E00E5F1F4FF0CF42FC02C083941B
:1014500078CF8394839475CF842D867809F471CFE7
:10146000F6CFB70180E290E00E94B50B839482141E
:10147000C0F3512C73CF522C5818821408F46ECF3D
:10148000F8CF842D867809F47BCF8BE241FE80E291
:1014900047FC8DE2B70190E071CFB70180E390E0A7
:1014A0000E94B50B9A946CCF8FEF9FEF99CF0F935B
:1014B0001F93CF93DF93869F8001879F100D969F88
:1014C000100D1124C8010E94730AEC01009729F045
:1014D000A80170E060E00E94A30BCE01DF91CF91E4
:1014E0001F910F9108950F931F93CF93DF93823035
:1014F000910510F482E090E0E091C302F091C40203
:1015000030E020E0B0E0A0E0309799F421153105FB
:1015100009F44AC0281B390B24303105D8F58A81DB
:101520009B816115710589F1FB0193838283FE0123
:1015300011C0408151810281138148175907E0F0A1
:101540004817590799F4109761F012960C93129767
:1015500013961C933296CF01DF91CF911F910F917B
:1015600008950093C3021093C402F4CF21153105EE
:1015700051F04217530738F0A901DB019A01BD0170
:10158000DF01F801C1CFEF01F9CF9093C40280933E
:10159000C302CDCFFE01E20FF31F8193919322503E
:1015A000310939832883D7CF2091C1023091C202FB
:1015B000232B41F420910801309109013093C2029C
:1015C0002093C102209106013091070121153105B8
:1015D00041F42DB73EB740910A0150910B01241BF5
:1015E000350BE091C102F091C202E217F307A0F4BB
:1015F0002E1B3F0B2817390778F0AC014E5F5F4F69
:101600002417350748F04E0F5F1F5093C2024093D6
:10161000C102819391939FCFF0E0E0E09CCFCF9304
:10162000DF930097E9F0FC01329713821282A091B8
:10163000C302B091C402ED0130E020E01097A1F4A4
:1016400020813181820F931F2091C1023091C2020B
:101650002817390709F061C0F093C202E093C10274
:10166000DF91CF910895EA01CE17DF07E8F54A81AF
:101670005B819E0141155105B1F7E901FB83EA83C6
:1016800049915991C40FD51FEC17FD0761F4808172
:1016900091810296840F951FE90199838883828145
:1016A00093819B838A83F0E0E0E012968D919C9178
:1016B00013970097B9F52D913C911197CD010296A2
:1016C000820F931F2091C1023091C202281739075F
:1016D00039F6309751F51092C4021092C302B093BC
:1016E000C202A093C102BCCFD383C2834081518187
:1016F000840F951FC817D90761F44E5F5F4F88812B
:101700009981480F591F518340838A819B8193831C
:1017100082832115310509F0B0CFF093C402E09324
:10172000C3029ECFFD01DC01C0CF13821282D7CF4E
:10173000FC010590615070400110D8F7809590959C
:101740008E0F9F1F0895DC0101C06D9341505040E2
:10175000E0F70895FC016150704001900110D8F746
:10176000809590958E0F9F1F08950F931F93CF9391
:10177000DF93182F092FEB018B8181FD09C01FEF2B
:101780000FEF812F902FDF91CF911F910F9108952F
:1017900082FF14C02E813F818C819D8128173907DB
:1017A0003CF4E881F981CF01019699838883108305
:1017B0008E819F8101969F838E83E3CFE885F98593
:1017C000812F0995892BA1F3DACFFA01AA272830B6
:1017D00051F1203181F1E8946F936E7F6E5F7F4FFE
:1017E0008F4F9F4FAF4FB1E03ED0B4E03CD0670F7A
:1017F000781F891F9A1FA11D680F791F8A1F911DCD
:10180000A11D6A0F711D811D911DA11D20D009F41C
:1018100068943F912AE0269F11243019305D31935E
:10182000DEF6CF010895462F4770405D4193B3E047
:101830000FD0C9F7F6CF462F4F70405D4A3318F0EE
:10184000495D31FD4052419302D0A9F7EACFB4E09F
:10185000A6959795879577956795BA95C9F7009757
:101860006105710508959B01AC010A2E06945795F8
:10187000479537952795BA95C9F7620F731F841F4F
:10188000951FA01D0895052E97FB1EF400940E943D
:101890005A0C57FD07D00E94AC0C07FC03D04EF445
:1018A0000C945A0C50954095309521953F4F4F4FD1
:1018B0005F4F089590958095709561957F4F8F4FFC
:1018C0009F4F08950E94CE0CA59F900DB49F900D40
:1018D000A49F800D911D11240895B7FF0C94620CF4
:1018E0000E94620C821B930B08952F923F924F929D
:1018F0005F926F927F928F929F92AF92BF92CF92A0
:10190000DF92EF92FF920F931F93CF93DF93CDB7A8
:10191000DEB7CA1BDB0B0FB6F894DEBF0FBECDBF20
:1019200009942A88398848885F846E847D848C84F1
:101930009B84AA84B984C884DF80EE80FD800C81FA
:101940001B81AA81B981CE0FD11D0FB6F894DEBFDD
:101950000FBECDBFED010895A1E21A2EAA1BBB1B3D
:10196000FD010DC0AA1FBB1FEE1FFF1FA217B3076B
:10197000E407F50720F0A21BB30BE40BF50B661F81
:10198000771F881F991F1A9469F760957095809545
:1019900090959B01AC01BD01CF010895A29FB001BC
:1019A000B39FC001A39F700D811D1124911DB29F93
:0E19B000700D811D1124911D0895F894FFCF34
:1019BE003412010000000000C50220005374617251
:1019CE0074696E67205352414D20746573742E2EC8
:1019DE002E00577269746520706861736520657298
:1019EE00726F723A206578745F72616D5B25346434
:1019FE005D203D2025303258202873686F756C6449
:101A0E002062652025303258290A005265747269A9
:101A1E006576616C207068617365206572726F7295
:101A2E003A206578745F72616D5B2534645D203D8C
:101A3E002025303258202873686F756C64206265DB
:101A4E002025303258290A005352414D20746573B7
:101A5E007420636F6D706C6574656420776974684B
:101A6E00200A253464206572726F727320696E20AD
:101A7E00777269746520706861736520616E642089
:101A8E000A253464206572726F727320696E20723B
:101A9E00657472696576616C2070686173650A0A97
:101AAE0000496E76616C6964206368616E6E656C68
:101ABE002E00557000446F776E005269676874008F
:101ACE004C656674004E65757472616C00506C6185
:0E1ADE00792067616D650053636F72650000CB
:00000001FF
