:100000000C9438000C9455000C9455000C94550039
:100010000C9455000C9455000C9455000C9455000C
:100020000C9455000C9455000C9455000C945500FC
:100030000C9455000C9455000C9455000C945500EC
:100040000C94A5030C9455000C9455000C940201DB
:100050000C9455000C94DB000C9455000C94550046
:100060000C9455000C9455000C9455000C945500BC
:1000700011241FBECFEFD4E0DEBFCDBF12E0A0E061
:10008000B1E0ECE4F2E102C005900D92AC33B107AF
:10009000D9F722E0ACE3B2E001C01D92A33DB20764
:1000A000E1F70E9457000C9424090C940000CF93B0
:1000B000DF9300D000D000D0CDB7DEB78FE190E065
:1000C0000E9479000E94D4000E941E010E94AC018F
:1000D000CE0101960E943002789480E00E94BE0119
:1000E000CE0101960E948502CE0101960E941E0358
:1000F000F4CF90BD89B98AB1886B8AB908952091EF
:100100003D0230E02F5F3F4F2F73307890913C02DB
:100110009217E1F3E0913D02F0E0E757FD4F808355
:1001200020933D0290E080E00895CF93C82F8A305D
:1001300039F08C2F0E947F0090E080E0CF910895ED
:100140008DE00E949500F5CF90913F0280913E0294
:100150009817D1F3E0913F02F0E0E75BFD4F80811B
:1001600020913F0230E090913E029217130699F0E1
:1001700094F0A9014F5F5F4FFA01E75BFD4F90815B
:10018000275B3D4FF901908390913E029A019417AD
:10019000150609F074F790913E02915090933E023B
:1001A00008950E94A400089561ED70E085E990E053
:1001B0000E94380408951F920F920FB60F921124D7
:1001C0008F939F93EF93FF9390913D0280913C0218
:1001D000981779F0E0913C02F0E0E757FD4F8081FD
:1001E0008CB980913C0290E001968F739078809357
:1001F0003C02FF91EF919F918F910F900FBE0F9056
:100200001F9018951F920F920FB60F9211248F9383
:10021000EF93FF93E0913E02F0E08CB1E75BFD4F7E
:10022000808380913E028F5F80933E02FF91EF9129
:100230008F910F900FBE0F901F90189580E885BF8B
:1002400080E280BF0895CF92DF92EF92FF920F93EA
:100250001F93CF93DF938CE091E00E9499040E945A
:1002600028046C010E942D04D0E0C0E010E000E002
:100270000F2EF2E2EF2EF1E0FF2EF02D05C02196B9
:10028000C11598E0D907F1F00E942804FE01FC5E38
:1002900080832081281799F399279F938F931F922A
:1002A0002F93DF93CF93FF92EF920E9483040F5F0F
:1002B0001F4F8DB79EB708960FB6F8949EBF0FBE1E
:1002C0008DBFDDCFC6010E942D04D0E0C0E0F12C2F
:1002D000E12C0F2EFBE5CF2EF1E0DF2EF02D05C037
:1002E0002196C11598E0D907F1F00E942804FE017B
:1002F000FC5E20812817A1F399279F938F931F926B
:100300002F93DF93CF93DF92CF920E9483048FEFDE
:10031000E81AF80A8DB79EB708960FB6F8949EBFF4
:100320000FBE8DBFDDCFFF92EF921F930F9388E931
:1003300091E09F938F930E9483040F900F900F90F2
:100340000F900F900F90DF91CF911F910F91FF9021
:10035000EF90DF90CF9008958D9A1BBC1ABC8FB59B
:1003600080648FBD8EB589608EBD83B78D6083BF7D
:1003700089B7816089BF80E381BF08959091400271
:10038000992309F440C0E0910001F091010120811E
:1003900030E03093440220934302208130E03093D8
:1003A000420220934102208130E0309346022093A4
:1003B0004502208130E030934802209347021082AA
:1003C000882359F0813071F0823089F08330A1F4B4
:1003D0008091470290914802089580914302909144
:1003E00044020895809141029091420208958091C3
:1003F000450290914602089581EF91E00E94990490
:1004000090E080E008950895E0910001F0910101ED
:1004100010829DE09A95F1F70000E0910001F091C3
:1004200001019081208140813081882369F08130F1
:1004300071F0823079F0833081F081EF91E00E9499
:10044000990490E080E00895892F90E00895822F2C
:1004500090E00895842F90E00895832F90E0089510
:10046000CF92DF92EF92FF920F931F93CF93DF9380
:100470006C01C0E2D0E010E000E0F12CE12C80E063
:100480000E940402E80EF91E81E00E940402080F97
:10049000191F2197A1F7C70199239CF1959587957D
:1004A0009595879595958795959587959595879534
:1004B000F60195838483C80199232CF1959587953E
:1004C0009595879595958795959587959595879514
:1004D000F601978386831182108213821282E09143
:1004E0000001F09101011082FDE0FA95F1F70000A2
:1004F000DF91CF911F910F91FF90EF90DF90CF9000
:1005000008954F96CBCF4F96D9CF0F931F93CF938C
:10051000DF938C012091430230914402E09141022B
:10052000F0914202DC0114964D915C914217530701
:100530000CF054C0241B350B64E6629FC001639F1E
:10054000900D112465EF70E0641B750B0E94B403DD
:100550009B016536710514F024E630E0D80116964B
:10056000CD91DC91CE17DF070CF04EC0EC1BFD0BDC
:1005700064E66E9FC0016F9F900D112465EF70E0DF
:100580006C1B7D0B0E94B403EB016536710514F002
:10059000C4E6D0E0D8012D933C933F932F9382E0A3
:1005A00092E09F938F930E948304F801D383C283C8
:1005B000DF93CF9381E192E09F938F930E94830416
:1005C0006DB77EB7685F7F4F0FB6F8947EBF0FBEE2
:1005D0006DBFDF91CF911F910F910895241B350BB3
:1005E0006CE96203C001639F900D11246BE470E01D
:1005F000641B750B0E94B4039B016C397F4F0CF098
:10060000ADCF2CE93FEFAACFDF01AC1BBD0BECE96E
:100610006E2FAD016403C001659F900D11246BE442
:1006200070E06C1B7D0B0E94B403EB01CC397FEFB3
:10063000D7070CF0AFCFCCE9DFEFACCFFC012281C4
:100640003381253131053CF0808191819923F4F08B
:1006500028173907FCF42C3E8FEF3807BCF5408192
:100660005181B9013323FCF0CA0155230CF16817FD
:1006700079071CF545315105BCF181E090E0918787
:10068000808788E292E00E9499040895919581956F
:100690009109DECF82E090E09187808780E292E04E
:1006A0000E949904089566277727621B730BDCCF9D
:1006B00088279927841B950BDACF83E090E09187F8
:1006C000808783E292E00E949904089540815181DD
:1006D000453151054CF0BA015523E4F0C9013323EB
:1006E000F4F0861797074CF24C3E8FEF58074CF406
:1006F000BA015523CCF0C9019923DCF068177907BA
:10070000ECF084E090E09187808783E392E00E94A0
:100710009904089566277727641B750BDFCF882718
:100720009927821B930BDDCF66277727641B750BF8
:10073000E2CF88279927821B930BE0CF1186108682
:100740008EE292E00E94990408951F920F920FB6D4
:100750000F9211248F9381E0809340028F910F902C
:100760000FBE0F901F90189597FB072E16F400945C
:1007700007D077FD09D00E94C80307FC05D03EF4DE
:10078000909581959F4F0895709561957F4F08953D
:10079000AA1BBB1B51E107C0AA1FBB1FA617B707A7
:1007A00010F0A61BB70B881F991F5A95A9F78095C3
:1007B0009095BC01CD0108958F929F92AF92BF9208
:1007C000CF92DF92EF92FF92CF93DF93EC0168819B
:1007D00079818A819B81611571058105910521F4DB
:1007E00064E279ED8BE597E02DE133EF41E050E0F5
:1007F0000E948A0849015A019B01AC01A7EAB1E4B1
:100800000E94A9086B017C01ACEEB4EFA501940134
:100810000E94B708DC01CB018C0D9D1DAE1DBF1DD4
:10082000B7FF03C00197A109B04888839983AA83C1
:10083000BB839F77DF91CF91FF90EF90DF90CF90B8
:10084000BF90AF909F908F9008950E94DC03089511
:1008500082E091E00E94DC030895B0E0A0E0809384
:10086000020190930301A0930401B0930501089540
:100870000F931F93CF93DF93009759F46115710580
:1008800041F4F0E0E0E0CF01DF91CF911F910F91B3
:1008900008958B01EC016EE070E081E090E00E9431
:1008A0009E06FC01892B69F380E8838301151105FD
:1008B00071F01387028781E883838091C902909148
:1008C000CA02892B21F4F093CA02E093C90220974F
:1008D000D1F2D187C0878381826083838091CB02EC
:1008E0009091CC02892B79F6F093CC02E093CB0265
:1008F0008091CD029091CE02892B29F6F093CE0201
:10090000E093CD02C0CFB0E0A0E0E9E8F4E00C94C1
:10091000CC08AE014B5F5F4FFA0161917191AF015D
:100920008091CB029091CC020E94C404E2E00C942E
:10093000E8080F931F93CF93DF93E091CB02F091E0
:10094000CC022381EC0110E000E021FD08C00FEF94
:100950001FEF14C00995892B11F00FEF1FEF89913C
:100960006091CB027091CC02DB011896ED91FC9165
:100970008111F0CF8AE00995892B49F7C801DF91F1
:10098000CF911F910F910895ABE0B0E0EAECF4E055
:100990000C94BC087C013B018A01FC011782168281
:1009A000838181FFC8C1CE0101965C01F70193816B
:1009B000F30193FD859193FF81913F01882309F411
:1009C00053C1853239F493FD859193FF81913F01A5
:1009D000853229F4B70190E00E94FC07E7CF912C03
:1009E000212C312CFFE1F31538F08B3211F190F40A
:1009F000803209F1833229F137FC3CC020ED280F09
:100A00002A3050F536FE20C08AE0989E200D112431
:100A1000922E06C08D3291F0803371F7689430F8D1
:100A2000F30193FD859193FF81913F018111DACF0D
:100A300021C0689431F8689432F8F2CF689433F8A2
:100A4000EFCF689434F8ECCFEAE02E9E200D11240D
:100A5000222E689435F8E4CF8E3229F436FC04C196
:100A6000689436F8DDCF8C3619F4689437F8D8CF0F
:100A70008836B1F2982F9F7D95549330E0F08336FD
:100A8000A1F18337C1F1833509F063C02801F2E099
:100A90004F0E511CF801C080D180692D70E036FCEA
:100AA00002C06FEF7FEFC6010E94DF074C01689420
:100AB00037F882010AC00C5F1F4FFFE3F9838824D7
:100AC0008394912C6501E89437F833FE2DC0522CA5
:100AD0008114910471F5552009F468CFB70180E2C3
:100AE00090E00E94FC075A94F6CFF8018081898338
:100AF0000E5F1F4FE4CF2801F2E04F0E511CF801AA
:100B0000C080D180692D70E036FC02C06FEF7FEFAE
:100B1000C6010E94F1074C018201D5CFB70180E2E6
:100B200090E00E94FC072A942814190409F0B0F7F9
:100B3000CECFF60137FC859137FE81916F01B70169
:100B400090E00E94FC0751105A94F1E08F1A91082E
:100B5000BFCF843619F0893609F077C0F80137FE27
:100B60006BC060817181828193810C5F1F4FF32D77
:100B7000FF763F2E97FF09C09095809570956195FF
:100B80007F4F8F4F9F4F689437F82AE030E0A501E0
:100B90000E942C08C82ECA188C2C432C36FE0CC080
:100BA000E89440F8C91440F434FE05C032FC03C098
:100BB000F32DFE7E4F2E892C44FE95C0FE01EC0DD8
:100BC000F11D8081803309F087C0242D297E422EBB
:100BD000842D8870582E43FC95C040FE8FC09C2CFD
:100BE000821418F42C0C922C981844FE91C0B70172
:100BF00080E390E00E94FC0742FE09C088E790E095
:100C000041FE02C088E590E0B7010E94FC07C914CC
:100C100008F48AC0CA94D12C9FEFC91AD90ACA0C09
:100C2000DB1CF60182916F01B70190E00E94FC0786
:100C3000AC14BD04B1F74FCF60817181072E000C59
:100C4000880B990B0E5F1F4F92CFD32CE894D4F8EA
:100C50002AE030E0853739F1232D297FD22E8F36D7
:100C600001F148F48835A9F0F701868197812B9628
:100C7000E2E10C94D808803749F08837A9F7D4FE10
:100C800002C06894D2F820E130E00DC06894D4F836
:100C9000F6CF34FE03C0822F8660D82E20E132E0EA
:100CA00002C028E030E0F801D7FE0FC060817181FA
:100CB000828193810C5F1F4FA5010E942C08C82ED2
:100CC000CA183D2CE89437F867CF6081718190E0B5
:100CD00080E00E5F1F4FF0CF42FC02C0839478CFBC
:100CE0008394839475CF842D867809F471CFF6CFE1
:100CF000B70180E290E00E94FC0783948214C0F365
:100D0000512C73CF522C5818821408F46ECFF8CFA0
:100D1000842D867809F47BCF8BE241FE80E247FC8C
:100D20008DE2B70190E071CFB70180E390E00E94BF
:100D3000FC079A946CCF8FEF9FEF99CF0F931F937F
:100D4000CF93DF93869F8001879F100D969F100D94
:100D50001124C8010E94BA06EC01009729F0A801ED
:100D600070E060E00E94EA07CE01DF91CF911F9111
:100D70000F9108950F931F93CF93DF9382309105C6
:100D800010F482E090E0E091D102F091D20230E0E4
:100D900020E0B0E0A0E0309799F42115310509F486
:100DA0004AC0281B390B24303105D8F58A819B8134
:100DB0006115710589F1FB0193838283FE0111C0E6
:100DC000408151810281138148175907E0F048178B
:100DD000590799F4109761F012960C931297139695
:100DE0001C933296CF01DF91CF911F910F910895FF
:100DF0000093D1021093D202F4CF2115310551F0A6
:100E00004217530738F0A901DB019A01BD01DF0148
:100E1000F801C1CFEF01F9CF9093D2028093D102B4
:100E2000CDCFFE01E20FF31F819391932250310940
:100E300039832883D7CF2091CF023091D002232B42
:100E400041F420910801309109013093D0022093A0
:100E5000CF0220910601309107012115310541F49F
:100E60002DB73EB740910A0150910B01241B350B61
:100E7000E091CF02F091D002E217F307A0F42E1B0D
:100E80003F0B2817390778F0AC014E5F5F4F2417EE
:100E9000350748F04E0F5F1F5093D0024093CF02AA
:100EA000819391939FCFF0E0E0E09CCFCF93DF93CD
:100EB0000097E9F0FC01329713821282A091D102CF
:100EC000B091D202ED0130E020E01097A1F4208132
:100ED0003181820F931F2091CF023091D0022817C9
:100EE000390709F061C0F093D002E093CF02DF919F
:100EF000CF910895EA01CE17DF07E8F54A815B81BB
:100F00009E0141155105B1F7E901FB83EA8349913F
:100F10005991C40FD51FEC17FD0761F480819181B1
:100F20000296840F951FE9019983888382819381BA
:100F30009B838A83F0E0E0E012968D919C91139759
:100F40000097B9F52D913C911197CD010296820F32
:100F5000931F2091CF023091D0022817390739F61C
:100F6000309751F51092D2021092D102B093D00274
:100F7000A093CF02BCCFD383C28340815181840F21
:100F8000951FC817D90761F44E5F5F4F888199811B
:100F9000480F591F518340838A819B8193838283A9
:100FA0002115310509F0B0CFF093D202E093D102C0
:100FB0009ECFFD01DC01C0CF13821282D7CFFC018E
:100FC0000590615070400110D8F7809590958E0F74
:100FD0009F1F0895DC0101C06D9341505040E0F720
:100FE0000895FC016150704001900110D8F7809580
:100FF00090958E0F9F1F08950F931F93CF93DF93AC
:10100000182F092FEB018B8181FD09C01FEF0FEF16
:10101000812F902FDF91CF911F910F91089582FF23
:1010200014C02E813F818C819D81281739073CF4A3
:10103000E881F981CF0101969983888310838E819D
:101040009F8101969F838E83E3CFE885F985812F69
:101050000995892BA1F3DACFFA01AA27283051F19B
:10106000203181F1E8946F936E7F6E5F7F4F8F4FD9
:101070009F4FAF4FB1E03ED0B4E03CD0670F781F38
:10108000891F9A1FA11D680F791F8A1F911DA11D1D
:101090006A0F711D811D911DA11D20D009F4689456
:1010A0003F912AE0269F11243019305D3193DEF6FE
:1010B000CF010895462F4770405D4193B3E00FD0B4
:1010C000C9F7F6CF462F4F70405D4A3318F0495D9F
:1010D00031FD4052419302D0A9F7EACFB4E0A69582
:1010E0009795879577956795BA95C9F700976105A4
:1010F000710508959B01AC010A2E069457954795FA
:1011000037952795BA95C9F7620F731F841F951FEE
:10111000A01D0895052E97FB1EF400940E94A108BF
:1011200057FD07D00E94F30807FC03D04EF40C943F
:10113000A10850954095309521953F4F4F4F5F4FF7
:10114000089590958095709561957F4F8F4F9F4F33
:1011500008950E941509A59F900DB49F900DA49F1E
:10116000800D911D11240895B7FF0C94A9080E94C9
:10117000A908821B930B08952F923F924F925F9282
:101180006F927F928F929F92AF92BF92CF92DF9297
:10119000EF92FF920F931F93CF93DF93CDB7DEB7FC
:1011A000CA1BDB0B0FB6F894DEBF0FBECDBF099490
:1011B0002A88398848885F846E847D848C849B84E7
:1011C000AA84B984C884DF80EE80FD800C811B81F5
:1011D000AA81B981CE0FD11D0FB6F894DEBF0FBE24
:1011E000CDBFED010895A1E21A2EAA1BBB1BFD0184
:1011F0000DC0AA1FBB1FEE1FFF1FA217B307E407F6
:10120000F50720F0A21BB30BE40BF50B661F771F4D
:10121000881F991F1A9469F760957095809590952D
:101220009B01AC01BD01CF010895A29FB001B39F06
:10123000C001A39F700D811D1124911DB29F700DDF
:0C124000811D1124911D0895F894FFCF2A
:10124C003412010000000000D302200053746172BC
:10125C0074696E67205352414D20746573742E2E41
:10126C002E00577269746520706861736520657211
:10127C00726F723A206578745F72616D5B253464AD
:10128C005D203D2025303258202873686F756C64C2
:10129C002062652025303258290A00526574726923
:1012AC006576616C207068617365206572726F720F
:1012BC003A206578745F72616D5B2534645D203D06
:1012CC002025303258202873686F756C6420626555
:1012DC002025303258290A005352414D2074657331
:1012EC007420636F6D706C657465642077697468C5
:1012FC00200A253464206572726F727320696E2027
:10130C00777269746520706861736520616E642002
:10131C000A253464206572726F727320696E2072B4
:10132C00657472696576616C2070686173650A0A10
:10133C0000496E76616C6964206368616E6E656CE1
:10134C002E00585F70726563656E743A2025690AC9
:10135C0000595F70726563656E743A2025690A00E6
:10136C00557000446F776E005269676874004C6565
:0C137C006674004E65757472616C0000B0
:00000001FF
