:100000000C9438000C9455000C9455000C94550039
:100010000C9455000C9455000C9455000C9455000C
:100020000C9455000C9455000C9455000C945500FC
:100030000C9455000C9455000C9455000C945500EC
:100040000C9455000C9455000C9455000C94090127
:100050000C9455000C94E2000C9455000C9455003F
:100060000C9455000C9455000C9455000C945500BC
:1000700011241FBECFEFD4E0DEBFCDBF12E0A0E061
:10008000B1E0E4ECFFE002C005900D92A231B107AF
:10009000D9F722E0A2E1B2E001C01D92A43AB20772
:1000A000E1F70E9457000C94E0070C940000CF93F6
:1000B000DF9300D000D0CDB7DEB78FE190E00E9493
:1000C00080000E94DB000E9425010E94B301CE0146
:1000D00001960E94040278940CE011E0CE01019692
:1000E0000E942C0280E00E94E1011F928F931F93D7
:1000F0000F930E943F030F900F900F900F90EECF41
:1001000090BD89B98AB1886B8AB90895209113028C
:1001100030E02F5F3F4F2F7330789091120292178B
:10012000E1F3E0911302F0E0E65AFD4F8083209363
:10013000130290E080E00895CF93C82F8A3039F001
:100140008C2F0E94860090E080E0CF9108958DE092
:100150000E949C00F5CF909115028091140298178F
:10016000D1F3E0911502F0E0E65EFD4F8081209131
:10017000150230E0909114029217130699F094F052
:10018000A9014F5F5F4FFA01E65EFD4F9081265E49
:100190003D4FF9019083909114029A01941715062E
:1001A00009F074F7909114029150909314020895FD
:1001B0000E94AB00089568ED70E08CE990E00E9429
:1001C000F40208951F920F920FB60F9211248F938D
:1001D0009F93EF93FF9390911302809112029817CF
:1001E00079F0E0911202F0E0E65AFD4F80818CB97F
:1001F0008091120290E001968F73907880931202A2
:10020000FF91EF919F918F910F900FBE0F901F90D4
:1002100018951F920F920FB60F9211248F93EF93A0
:10022000FF93E0911402F0E08CB1E65EFD4F808315
:10023000809114028F5F80931402FF91EF918F9150
:100240000F900FBE0F901F90189580E885BF80E239
:1002500080BF0895CF92DF92EF92FF920F931F938A
:10026000CF93DF938CE191E00E9455030E94E4025A
:100270006C010E94E902D0E0C0E010E000E00F2E27
:10028000F2E3EF2EF1E0FF2EF02D05C02196C1150F
:1002900098E0D907F1F00E94E402FE01FC5E808341
:1002A0002081281799F399279F938F931F922F935B
:1002B000DF93CF93FF92EF920E943F030F5F1F4F98
:1002C0008DB79EB708960FB6F8949EBF0FBE8DBF30
:1002D000DDCFC6010E94E902D0E0C0E0F12CE12CA4
:1002E0000F2EFBE6CF2EF1E0DF2EF02D05C021967C
:1002F000C11598E0D907F1F00E94E402FE01FC5E0E
:1003000020812817A1F399279F938F931F922F93F2
:10031000DF93CF93DF92CF920E943F038FEFE81AD3
:10032000F80A8DB79EB708960FB6F8949EBF0FBE19
:100330008DBFDDCFFF92EF921F930F9388EA91E07C
:100340009F938F930E943F030F900F900F900F90F9
:100350000F900F90DF91CF911F910F91FF90EF9031
:10036000DF90CF9008958D9A1BBC1ABC8FB5806426
:100370008FBD8EB589608EBD83B78D6083BF8EE5DE
:1003800081BFE0910001F09101011082089588235E
:1003900061F0813069F0823071F0833079F081E072
:1003A00092E00E94550380E008958091170208951D
:1003B0008091160208958091180208958091190283
:1003C0000895E0910001F091010110829DE09A955D
:1003D000F1F70000E0910001F0910101908120818E
:1003E00040813081882371F0922F813059F0942F11
:1003F000823041F0932F833029F081E092E00E9417
:10040000550390E0892F0895EF92FF921F93CF93A9
:10041000DF937C01C0E2D0E010E080E00E94E101C7
:10042000180F81E00E94E101D80F82E48A95F1F76C
:1004300000C0C15091F7129516951770F7011283FD
:10044000D295D695D770D3831083D183DF91CF9186
:100450001F91FF90EF9008950F931F93CF938C01FE
:1004600080E00E94E101C82F81E00E94E101D801F3
:1004700013966C91062E000C770B60957095E4E650
:10048000F0E0CF010E947002C69F202D1124245657
:10049000D80112966C91062E000C770B6095709522
:1004A000CF010E947002C69FC02D1124C456F801CE
:1004B000C0832183CF911F910F910895E091000196
:1004C000F091010180818093170280818093160250
:1004D0008081809318028081809319021082089590
:1004E00097FB072E16F4009407D077FD09D00E94E1
:1004F000840207FC05D03EF4909581959F4F0895A6
:10050000709561957F4F0895AA1BBB1B51E107C0F1
:10051000AA1FBB1FA617B70710F0A61BB70B881F93
:10052000991F5A95A9F780959095BC01CD01089522
:100530008F929F92AF92BF92CF92DF92EF92FF92F3
:10054000CF93DF93EC01688179818A819B8161156A
:1005500071058105910521F464E279ED8BE597E061
:100560002DE133EF41E050E00E94460749015A0176
:100570009B01AC01A7EAB1E40E9465076B017C0115
:10058000ACEEB4EFA50194010E947307DC01CB012E
:100590008C0D9D1DAE1DBF1DB7FF03C00197A109A6
:1005A000B04888839983AA83BB839F77DF91CF91DB
:1005B000FF90EF90DF90CF90BF90AF909F908F9083
:1005C00008950E949802089582E091E00E949802A6
:1005D0000895B0E0A0E08093020190930301A093FE
:1005E0000401B093050108950F931F93CF93DF93F8
:1005F000009759F46115710541F4F0E0E0E0CF0196
:10060000DF91CF911F910F9108958B01EC016EE066
:1006100070E081E090E00E945A05FC01892B69F3AB
:1006200080E883830115110571F01387028781E843
:10063000838380919A0290919B02892B21F4F093FD
:100640009B02E0939A022097D1F2D187C0878381E1
:100650008260838380919C0290919D02892B79F620
:10066000F0939D02E0939C0280919E0290919F02E4
:10067000892B29F6F0939F02E0939E02C0CFB0E051
:10068000A0E0E5E4F3E00C948807AE014B5F5F4F18
:10069000FA0161917191AF0180919C0290919D024C
:1006A0000E948003E2E00C94A4070F931F93CF9362
:1006B000DF93E0919C02F0919D022381EC0110E018
:1006C00000E021FD08C00FEF1FEF14C00995892B32
:1006D00011F00FEF1FEF899160919C0270919D02C4
:1006E000DB011896ED91FC918111F0CF8AE009951C
:1006F000892B49F7C801DF91CF911F910F91089580
:10070000ABE0B0E0E6E8F3E00C9478077C013B0155
:100710008A01FC0117821682838181FFC8C1CE0144
:1007200001965C01F7019381F30193FD859193FF9D
:1007300081913F01882309F453C1853239F493FD37
:10074000859193FF81913F01853229F4B70190E0B3
:100750000E94B806E7CF912C212C312CFFE1F31534
:1007600038F08B3211F190F4803209F1833229F1A3
:1007700037FC3CC020ED280F2A3050F536FE20C053
:100780008AE0989E200D1124922E06C08D3291F0A1
:10079000803371F7689430F8F30193FD859193FFEE
:1007A00081913F018111DACF21C0689431F86894BA
:1007B00032F8F2CF689433F8EFCF689434F8ECCF86
:1007C000EAE02E9E200D1124222E689435F8E4CF05
:1007D0008E3229F436FC04C1689436F8DDCF8C36AD
:1007E00019F4689437F8D8CF8836B1F2982F9F7DE6
:1007F00095549330E0F08336A1F18337C1F183350E
:1008000009F063C02801F2E04F0E511CF801C080CE
:10081000D180692D70E036FC02C06FEF7FEFC6011A
:100820000E949B064C01689437F882010AC00C5F55
:100830001F4FFFE3F98388248394912C6501E8948A
:1008400037F833FE2DC0522C8114910471F55520D8
:1008500009F468CFB70180E290E00E94B8065A948C
:10086000F6CFF801808189830E5F1F4FE4CF280106
:10087000F2E04F0E511CF801C080D180692D70E06C
:1008800036FC02C06FEF7FEFC6010E94AD064C013F
:100890008201D5CFB70180E290E00E94B8062A9489
:1008A0002814190409F0B0F7CECFF60137FC859172
:1008B00037FE81916F01B70190E00E94B806511098
:1008C0005A94F1E08F1A9108BFCF843619F0893617
:1008D00009F077C0F80137FE6BC0608171818281B9
:1008E00093810C5F1F4FF32DFF763F2E97FF09C0BA
:1008F00090958095709561957F4F8F4F9F4F68942D
:1009000037F82AE030E0A5010E94E806C82ECA1890
:100910008C2C432C36FE0CC0E89440F8C91440F4EB
:1009200034FE05C032FC03C0F32DFE7E4F2E892C11
:1009300044FE95C0FE01EC0DF11D8081803309F06D
:1009400087C0242D297E422E842D8870582E43FC8A
:1009500095C040FE8FC09C2C821418F42C0C922C55
:10096000981844FE91C0B70180E390E00E94B80659
:1009700042FE09C088E790E041FE02C088E590E0B1
:10098000B7010E94B806C91408F48AC0CA94D12CD1
:100990009FEFC91AD90ACA0CDB1CF60182916F01BC
:1009A000B70190E00E94B806AC14BD04B1F74FCF78
:1009B00060817181072E000C880B990B0E5F1F4F11
:1009C00092CFD32CE894D4F82AE030E0853739F17F
:1009D000232D297FD22E8F3601F148F48835A9F0D6
:1009E000F701868197812B96E2E10C94940780377A
:1009F00049F08837A9F7D4FE02C06894D2F820E104
:100A000030E00DC06894D4F8F6CF34FE03C0822FD6
:100A10008660D82E20E132E002C028E030E0F80104
:100A2000D7FE0FC060817181828193810C5F1F4F5F
:100A3000A5010E94E806C82ECA183D2CE89437F894
:100A400067CF6081718190E080E00E5F1F4FF0CF33
:100A500042FC02C0839478CF8394839475CF842D15
:100A6000867809F471CFF6CFB70180E290E00E945A
:100A7000B80683948214C0F3512C73CF522C5818AB
:100A8000821408F46ECFF8CF842D867809F47BCFDA
:100A90008BE241FE80E247FC8DE2B70190E071CF2E
:100AA000B70180E390E00E94B8069A946CCF8FEF74
:100AB0009FEF99CF0F931F93CF93DF93869F800172
:100AC000879F100D969F100D1124C8010E94760576
:100AD000EC01009729F0A80170E060E00E94A606F2
:100AE000CE01DF91CF911F910F9108950F931F9326
:100AF000CF93DF938230910510F482E090E0E09193
:100B0000A202F091A30230E020E0B0E0A0E0309734
:100B100099F42115310509F44AC0281B390B2430FA
:100B20003105D8F58A819B816115710589F1FB0139
:100B300093838283FE0111C0408151810281138120
:100B400048175907E0F04817590799F4109761F0D2
:100B500012960C93129713961C933296CF01DF9145
:100B6000CF911F910F9108950093A2021093A302B9
:100B7000F4CF2115310551F04217530738F0A90180
:100B8000DB019A01BD01DF01F801C1CFEF01F9CF0F
:100B90009093A3028093A202CDCFFE01E20FF31F38
:100BA000819391932250310939832883D7CF2091A3
:100BB000A0023091A102232B41F420910801309131
:100BC00009013093A1022093A002209106013091E7
:100BD00007012115310541F42DB73EB740910A01B7
:100BE00050910B01241B350BE091A002F091A10262
:100BF000E217F307A0F42E1B3F0B2817390778F0F4
:100C0000AC014E5F5F4F2417350748F04E0F5F1F52
:100C10005093A1024093A002819391939FCFF0E063
:100C2000E0E09CCFCF93DF930097E9F0FC0132978F
:100C300013821282A091A202B091A302ED0130E0D2
:100C400020E01097A1F420813181820F931F209121
:100C5000A0023091A1022817390709F061C0F09372
:100C6000A102E093A002DF91CF910895EA01CE178F
:100C7000DF07E8F54A815B819E0141155105B1F717
:100C8000E901FB83EA8349915991C40FD51FEC1701
:100C9000FD0761F4808191810296840F951FE9011F
:100CA00099838883828193819B838A83F0E0E0E04B
:100CB00012968D919C9113970097B9F52D913C91C7
:100CC0001197CD010296820F931F2091A0023091BF
:100CD000A1022817390739F6309751F51092A3026F
:100CE0001092A202B093A102A093A002BCCFD38322
:100CF000C28340815181840F951FC817D90761F4C1
:100D00004E5F5F4F88819981480F591F51834083FF
:100D10008A819B81938382832115310509F0B0CFAD
:100D2000F093A302E093A2029ECFFD01DC01C0CFAD
:100D300013821282D7CFFC010590615070400110E0
:100D4000D8F7809590958E0F9F1F0895DC0101C004
:100D50006D9341505040E0F70895FC0161507040A0
:100D600001900110D8F7809590958E0F9F1F0895E0
:100D70000F931F93CF93DF93182F092FEB018B81D4
:100D800081FD09C01FEF0FEF812F902FDF91CF91D1
:100D90001F910F91089582FF14C02E813F818C8195
:100DA0009D81281739073CF4E881F981CF0101962C
:100DB0009983888310838E819F8101969F838E8380
:100DC000E3CFE885F985812F0995892BA1F3DACF47
:100DD000FA01AA27283051F1203181F1E8946F936C
:100DE0006E7F6E5F7F4F8F4F9F4FAF4FB1E03ED012
:100DF000B4E03CD0670F781F891F9A1FA11D680FB0
:100E0000791F8A1F911DA11D6A0F711D811D911DE2
:100E1000A11D20D009F468943F912AE0269F112457
:100E20003019305D3193DEF6CF010895462F4770BB
:100E3000405D4193B3E00FD0C9F7F6CF462F4F7016
:100E4000405D4A3318F0495D31FD4052419302D074
:100E5000A9F7EACFB4E0A69597958795779567951A
:100E6000BA95C9F700976105710508959B01AC011A
:100E70000A2E06945795479537952795BA95C9F741
:100E8000620F731F841F951FA01D0895052E97FBE9
:100E90001EF400940E945D0757FD07D00E94AF0723
:100EA00007FC03D04EF40C945D07509540953095A7
:100EB00021953F4F4F4F5F4F0895909580957095C6
:100EC00061957F4F8F4F9F4F08950E94D107A59F37
:100ED000900DB49F900DA49F800D911D1124089535
:100EE000B7FF0C9465070E946507821B930B08955A
:100EF0002F923F924F925F926F927F928F929F922A
:100F0000AF92BF92CF92DF92EF92FF920F931F9317
:100F1000CF93DF93CDB7DEB7CA1BDB0B0FB6F894C8
:100F2000DEBF0FBECDBF09942A88398848885F8408
:100F30006E847D848C849B84AA84B984C884DF8079
:100F4000EE80FD800C811B81AA81B981CE0FD11D5D
:100F50000FB6F894DEBF0FBECDBFED010895A1E23C
:100F60001A2EAA1BBB1BFD010DC0AA1FBB1FEE1F23
:100F7000FF1FA217B307E407F50720F0A21BB30B6E
:100F8000E40BF50B661F771F881F991F1A9469F7EA
:100F900060957095809590959B01AC01BD01CF0146
:100FA0000895A29FB001B39FC001A39F700D811D42
:100FB0001124911DB29F700D811D1124911D089562
:040FC000F894FFCFD3
:100FC4003412010000000000A40220004368616E96
:100FD4006E656C20303A202575200A0053746172C6
:100FE40074696E67205352414D20746573742E2EBC
:100FF4002E0057726974652070686173652065728C
:10100400726F723A206578745F72616D5B25346427
:101014005D203D2025303258202873686F756C643C
:101024002062652025303258290A0052657472699D
:101034006576616C207068617365206572726F7289
:101044003A206578745F72616D5B2534645D203D80
:101054002025303258202873686F756C64206265CF
:101064002025303258290A005352414D20746573AB
:101074007420636F6D706C6574656420776974683F
:10108400200A253464206572726F727320696E20A1
:10109400777269746520706861736520616E64207D
:1010A4000A253464206572726F727320696E20722F
:1010B400657472696576616C2070686173650A0A8B
:1010C40000496E76616C6964206368616E6E656C5C
:0210D4002E00EC
:00000001FF
